:020000040000FA
:2010000000000420D55E0000FD5E0000FF5E0000015F0000035F0000055F0000000000009B
:20102000000000000000000000000000075F0000095F0000000000000B5F00000D5F00000C
:20104000F9A10000F9970000B11F01000F5F00000F5F00000F5F0000959E00000F5F0000AA
:20106000C1EF00000F5F00000F5F000009A300000F5F000009A200000F5F00000F5F000043
:2010800015C300000F5F00000F5F00000F5F00000F5F00000F5F00000F5F00000F5F000076
:2010A0000F5F00000F5F00000F5F00000F5F00000F5F00000F5F000000000000000000009C
:2010C0000F5F00000F5F00000F5F00000F5F00000F5F00000F5F00000F5F0000F9BA00005B
:2010E0000F5F00000F5F00000F5F000000000000000000000F5F0000000000000F5F0000CA
:201100000000000000000000000000000000000000000000000000000000000000000000CF
:201120000000000000000000000000000000000000000000000000000000000000000000AF
:2011400000000000000000000000000000000000000000000000000000000000000000008F
:2011600000000000000000000000000000000000000000000000000000000000000000006F
:2011800000000000000000000000000000000000000000000000000000000000000000004F
:2011A00000000000000000000000000000000000000000000000000000000000000000002F
:2011C00000000000000000000000000000000000000000000000000000000000000000000F
:2011E0000000000000000000000000000000000000000000000000000000000000000000EF
:2012000001F0FF01102A2BDB10F0070F08D010F8013B013A8B422DD010F0070F42B3F6D194
:20122000F0B441EA012141EA014122F007047FF000070023F0E80256083C85EA010586EA41
:20124000010685FA47F5A3FA87F586FA47F6A5FA87F68EB9EED1F0BC01F0FF0102F007023C
:2012600032B110F8013B013A83EA010313B1F8D10020704701387047002D06BF354603389F
:20128000073815F0010F07D1013015F4807F02BF013015F4C03F0130F0BC0138704700BF63
:2012A0002DE9F04FA3B01F4600231E93A44B19921B68079304461846884616F08BF84FF058
:2012C000000A05464FF0000BCDF874801D9B1A782B2A4CD039D80D2A32D8082A32D8002A43
:2012E0003CD000230E931D9E3378302B40F0B480737803F0DF03582B6CD10E9B01931EAB73
:20130000029700938F4A1FAB1DA9204613F00AFD10F00707054605D0062F2AD10136002310
:201320001D960E93199B002B40F096850E9BDBB152460BF1004343EC102B23B0BDE8F08FC2
:20134000202ACED101331D93C0E72D2AC9D101220E925A1C1D925B78002BC4D1199BCDF834
:201360007480002B40F0768552465B46E3E70022EEE71E9A3AB1352120A816F03BFA1E9976
:20138000204613F05DFF013F052F07D8DFE807F00E0B181D0E034FF0000BDA462807C1D5E9
:2013A0004BF0004BBEE7DDE920ABF7E7DDE920A31F9A23F4801302F2334243EA025BEDE7E0
:2013C000DFF884B14FF0000AE8E76FF0004B4FF0FF3AE3E71D9B5A1C1D925B78302BF9D029
:2013E000002B9FD001234FF0000904931D9B0A93CDF824904F460A221D980678A6F13003C4
:20140000D9B209292AD907992A4615F0EBFF98B3002033463D4607900246652B01D0452BF6
:2014200018D11DB9049B034398D00025DDF8748008F101031D9398F801302B2B75D02D2B51
:201440007BD04FF0000CA3F13001092940F28280CDF8748000269DE00023C4E7082FD8BFD3
:20146000099900F10100DABF02FB0133099302FB093901371D90BFE71D9B5A191D925B5D16
:20148000002F37D007903D46A3F13002092A12D90122C2E71D9B5A1C1D925B780130302B10
:2014A000F8D0A3F13102082A00F2DB841D9A079000200A920546303B00F1010214D00799E2
:2014C000114407912A4600EB050E0A21724513D12A18082A05F1010505441CDC09990A226C
:2014E00002FB0133099300221D9B591C1D915B781046C9E73846D2E7082A04DC099E4E43C8
:2015000009960132E2E702F1010CBCF1100FD8BF01FB09F9F5E7102DDCBF0A2202FB0939B0
:20152000E1E70023079301227CE74FF0000C08F102031D9398F8023085E74FF0010CF6E750
:20154000EC870100C48701000000F07F1D9B591C1D915B78302BF9D0A3F1310108293FF65E
:2015600079AFA3F1300E1D9B08931D9B591C1D915B78A3F13006092E37D9089E891B0829E4
:2015800044F61F6602DC7645A8BF7646BCF1000F00D07642002D4FD1049901437FF4C2AE7B
:2015A000002A7FF4DBAE692B27D024DC492B24D04E2B7FF4D3AE9E491DA815F0BAFF002813
:2015C0003FF4CCAE1D9B1B78282B2DD1994920AA1DA815F0C2FF052826D1219BDDF880A0B6
:2015E00043F0FF4B4BF4E00B9CE60A2101FB0E3EAEF1300EB9E76E2BDBE78F491DA815F0D5
:2016000098FF00283FF4AAAE1D9B8C49013B1DA81D9315F08EFF10B91D9B01331D93DFF874
:201620002CB24FF0000A7DE6854800F045FC8DED040BDDE904AB75E6079B0998F31A002F4A
:2016400008BF2F46102D0893A846A8BF4FF0100815F032F9092D82468B4613DD794B03EB29
:20166000C80353E9122315F0A1F9824648468B4615F022F902460B465046594614F0E0FF97
:2016800082468B460F2D38DC089B002B3FF44AAE24DD162B0BDC6B4D05EBC305D5E9000110
:2016A00052465B4615F082F982468B463AE6089AC5F12503934220DB624CC5F10F0504EB01
:2016C000C50152465B46D1E9000115F06FF9089B5D1B04EBC504D4E90023E3E7089B16337A
:2016E0000BDB079B574A9E1B02EBC606D6E900235046594615F084FAD6E7089BA5EB0808B5
:201700009844B8F1000F71DD18F00F030AD04D4901EBC30152465B46D1E9000115F046F975
:2017200082468B4638F00F084DD0B8F59A7F22DD00252E46099507952223DFF810B12360BC
:201740004FF0000A099B002B3FF4ECAD1E99204613F076FD0799204613F072FD31462046BD
:2017600013F06EFD0999204613F06AFD2946204613F066FDD6E500234FEA281850465946C2
:201780009946B8F1010F21DC0BB182468B462E4BABF1547B03EBC90952465B46D9E90001BF
:2017A00015F004F9294B0A460B4029498B428246BED8A1F580118B4286BFDFF898B04FF0E4
:2017C000FF3A02F1547B0023049381E018F0010F07D01D4B03EBC903D3E9002315F0E6F820
:2017E000012309F101094FEA6808CAE7EBD0C8F1000818F00F020AD0124B03EBC203504652
:201800005946D3E9002315F0FBF982468B465FEA2818D8D0B8F11F0F1EDD00252E4609957E
:20182000079522234FF0000A4FF0000B236089E700890100D8870100F7880100FA88010054
:201840003E890100E87B0100C07B01000000F07F0000A07CFFFFEF7F18F0100318BF6A23AA
:20186000DFF8B493049350465946002318F0010F04D0D9E9002315F099F801235FEA680817
:2018800009F10809F2D10BB182468B46049BBBB1CBF30A53C3F16B03002B594610DD1F2BDC
:2018A00040F32881342BDEBF203B4FF0FF3202FA03F34FF0000ACCBF4FF05C7B03EA010BB0
:2018C000002200235046594615F0D8FA0028A4D1099B00930A992B463A46204613F01CFDCD
:2018E000099000283FF424AF079B9E1B089B002BB4BF334600231093089B002523EAE3731B
:2019000018932E46099B2046596813F059FC079000283FF411AF099B1A69023203F10C0177
:2019200092000C3015F00FFD4BEC10AB20AA1FA92046CDE90AAB13F0BFFF1E9000283FF4A9
:20194000FBAE0121204613F031FD064600283FF4F3AE1F9B0499002BABBF109A189A189FDE
:20196000DDF84090ACBF03EB0209D71A209AA3EB01089044A34B08F1FF389845C2F1360262
:2019800080F2CC80A3EB08031F2BA2EB03024FF0010100F3B68001FA03F3119300230C9353
:2019A00009EB0208049BC14517441F444B46A8BF4346BB42A8BF3B46002BC2BFA8EB030816
:2019C000FF1AA9EB0309109B002B17DD31461A46204613F0A7FD064600283FF4ADAE014657
:2019E0001E9A204613F0F8FC0F9000283FF4A4AE1E99204613F024FC0F9B1E93B8F1000F33
:201A000000F39180089B002B08DD189A0799204613F088FD079000283FF48EAE002F08DD8D
:201A200007993A46204613F0D7FD079000283FF483AEB9F1000F08DD31464A46204613F018
:201A4000CBFD064600283FF477AE079A1E99204613F02EFE054600283FF46EAEC3680F9376
:201A60000023C360314615F076FE002865DA0F9B53EA0A0340F08780CBF31303002B40F06F
:201A800082802BF000431B0D1B05B3F1D66F7AD96B6913B92B69012B75DD294601222046B8
:201AA00013F09AFD3146054615F055FE00286ADD0499554A5B46002900F0858002EA0B0110
:201AC000B1F1D66F7FDCB1F15C7F7FF7AAAE4F4A0023CDE916325046DDE91623594614F087
:201AE00065FF0B46034308BF222382468B4608BF23602BE64FF0FF3202FA03F303EA0A0A88
:201B0000DEE6C8F17F4808F57F0808F57B4808F1E20801FA08F30C93119141E700230C9339
:201B2000012311933CE71E994246204613F054FD1E9000287FF466AFFEE55F466ED10F9AF3
:201B4000CBF3130342B3324A934228D1049B5046EBB12D4A3A40B2F1D46F4FF0FF3119D86A
:201B6000120DC2F16B0301FA03F3984217D1294B9F4202D101303FF4DFAD234B3B4003F579
:201B8000801B4FF0000A049B002BA0D1DEE54FF0FF33EAE70B46E8E753EA0A0388D00C9BB8
:201BA000DBB13B42EFD00F9B049A50465946C3B115F02AFC02460B46DDE90A0114F040FD96
:201BC00082468B46DFE71340A3F580136FEA135B6FEA0B5B4FF0FF3AD5E7119B13EA0A0FAC
:201BE000E0E715F011FC02460B46DDE90A0114F025FD0022002382468B4615F03FF9002839
:201C0000C1D00EE602FCFFFF0000F07F00005039FFFF0F00FFFFEF7F987B010031462846D9
:201C200015F0B5FD59EC108B10EE100A00224FF08043494615F036F900287CD00F9B002BC5
:201C40004CD0954B0022CDE90C23DFF84C924FF00008924B3B401193119A914B9A4240F0F6
:201C6000B280DDE90A23DDE90C01A7F1547B4BEC10ABCDE91623CDE90C0113F0A1FDDDE9FA
:201C80000C0153EC102B14F091FE52465B4614F0D7FC0B468149834A1940914282465ED907
:201CA0000B9B02F15472934203D10A9B01333FF443ADDFF8FCB14FF0FF3A1E99204613F004
:201CC000BFFA0799204613F0BBFA3146204613F0B7FA2946204613F0B3FA13E6BAF1000FC4
:201CE0001BD1CBF31303F3B96B4B00224046494615F0CEF8D0B9404649466B4B002214F046
:201D000055FE8046894609F10043CDF868801B93DDE91A23CDE90C239BE7BAF1010F02D14B
:201D2000002F3FF47EAD614B00228CE7DFF878914FF00008E7E75C4B40464946002214F0FE
:201D400035FE0F9B8046894633B901F1004312901393DDE91223DDE7CDE91289F9E703F1C4
:201D6000547B049B002BA8D12BF00043119A1B0D1B059A42A1D14046494615F039F914F062
:201D8000E7FD02460B464046494614F057FC0F9ACBF3130343EA0A0313438046894653D095
:201DA00035A3D3E9002315F073F800287FF4CEAC33A3D3E900234046494615F087F8002871
:201DC0003FF47BAFC2E4049B33B3119BB3F1D46F22D82DA3D3E900234046494615F062F8CB
:201DE000A0B14946404615F07BF8012838BF012014F062FD0F9B8046894613BB01F100431F
:201E000014901593DDE91423CDE90C230D9B119A03F1D6639B1A0D93DDE90C019DED0A0B4D
:201E2000CDE90C0113F0CCFCDDE90C0153EC102B14F0BCFDDDE90A2314F002FC82468B467C
:201E40008FE7CDE91489DDE711A3D3E9002315F01FF8B4E700230E93199A1D9B1360FFF713
:201E600065BA652B3FF45DAB452B3FF45AAB0122FFF792BBAFF300809535A094FFFFDF3F2E
:201E800035E5AF350000E03F0000C0FFFFFFDF419535A094FFFFCF3F0000F03F0000F07FA0
:201EA0000000E07FFFFF9F7C0000E03F0000F0BFFFFFEF7F000000009FED010B704700BF62
:201EC000000000000000F87F10B5054C237833B9044B13B10448AFF300800123237010BDE9
:201EE0003C04002000000000908B010008B5034B1BB103490348AFF3008008BD0000000011
:201F000040040020908B0100A3F5803A704700BF174B002B08BF134B9D46FFF7F5FF0021D9
:201F20008B460F461348144A121A15F034FA0E4B002B00D098470D4B002B00D098470020DE
:201F4000002104000D000D48002802D00C48AFF3008012F019FE2000290002F017FF12F01E
:201F6000FFFD00BF000008000000000000000000000004203C0400201038002000000000B2
:201F80000000000000B585B00346002101AA44F20100CDE90111039300F004F805B05DF8B7
:201FA00004FB00BF72B6094B1B68DB0700D500BEBFF34F8F0649074BCA6802F4E0621343FE
:201FC000CB60BFF34F8F00BFFDE700BFF0ED00E000ED00E00400FA050378052B02D0094B86
:201FE0001B681847084BD3F88424D3F8803413F0FF0FF4D1054BD2B2052A08BF1846014B70
:202000001B6818475804002000700240C87C0100014B02481B68184758040020CC7C01002E
:20202000012803D0022809D020B17047054B06481B681847034B05481B681847014B044884
:202040001B68184758040020C07C0100BC7C0100C47C01002DE9F04F87B0002504460F461B
:2020600090469946029500E001356268012356682146002202A8B0470028F5D18DF80600AF
:20208000049065B3824683460AE09DF806306668023B7668B0479DF806309B445D451ED92B
:2020A00062680123566821460DF1060204A8B04762680123566821460DF1070204A8B047A7
:2020C0009DF80730BB424FF00002214604A8DCD1D04508D00AF1010A5FFA8AFAD5E7052085
:2020E00007B0BDE8F08F109A9DF80630136089F8003089F801706168023B4D6809F10202C1
:202100002146A847002007B0BDE8F08FF0B5054683B03B4809F01CF8044610B1204603B097
:20212000F0BD384A3849394B14700C604822214637481C6015F02FF936482146482215F02E
:202140002AF9002D54D095E80700334B83E80700002847D0002007F049FC08B1852844D181
:202160002E4D2B7A002B49D0013BDBB205F10C024FF0030E6E68274FDFF894C01EFB032E1D
:2021800005F109046378EBB1A278611C1144013B51FA83F1224408E003F00F0307EBC303D3
:2021A00091421D60306858600CD012F8013B1806F2D503F00F030CEBC30391421D603068CE
:2021C0005860F2D103347445DCD10B238DF804301248336801A99847044600289ED008F0AA
:2021E000F9FF9BE70E4A1A60B4E7FFF7CBFEB7E7094B0B4A5D601D721A60ABE76E68E4E7F9
:20220000D91F0000BF2B0020F4040020F804002064040020AC04002058040020F87C01003F
:20222000E925000010B509F0EFF868B109F0F4F8044648B9064807F0EDFB034628B1FFF75D
:20224000A1FE2346184610BD0823184610BD00BFB87C010008F0C8BF09F0C6BE4FF0804303
:2022600003E0D3F83824D10707D5D3F838249207F7D5024B02481B68184770475804002068
:20228000D07C010000B5054B83B082221B688DF8042001A8984703B05DF804FB58040020DE
:2022A0002DE9F043057A83B0002D5ED005F1FF3E5FFA8EF300F10C024FF0030E00F1090171
:2022C000334FDFF8D4C01EFB032E0C4666780022964204EB020319D094F8028013F908900E
:2022E00013F80830B9F1000F0BDB03F00F0307EBC3031B680132002BEAD0112003B0BDE81B
:20230000F08303F00F030CEBC303F2E70334A645DCD100261E4FDFF880C0324602EB42028D
:202320000A445378EBB1002423460CE003F00F0307EBC303186045682D685D605578013439
:20234000E3B29D420CD99578134413F905E05B5DBEF1000FEADA03F00F030CEBC303E9E703
:20236000057A0136F2B29542D8D80A4A13681BB11A681368002BFBD1106043680B228DF820
:2023800004201B6801A9984703B0BDE8F08300BFAC040020F404002064040020024B187836
:2023A000003818BF01207047BE2B0020030710B5044604D52046BDE8104009F0ADBC09F085
:2023C000C5F9204609F000FD2046BDE8104009F0A3BC00BF09F0E6BE014B1868704700BF92
:2023E000F4040020F0B40E4B1F688FB13E7A96B100231C463A4602E0DCB2A6420BD9557AF2
:20240000854203F1010302F10302F5D101B10C703846F0BC70473B681F68002FE6D1F7E742
:20242000F4040020436811461B68184700F00F03082B0AD802064CBF054A064A02EBC30324
:20244000186810B143681B6818471020704700BF64040020AC04002038B5094B1C6864B1D6
:20246000054602E023681C683CB1636829461B68204698470628F5D038BD062038BD00BF6F
:20248000F404002038B50D46044609F031F818B1054B1B78022B01D0082038BD29462046DC
:2024A000BDE8384009F034B8BF2B002038B50D46044609F01DF818B1054B1B78022B01D0CE
:2024C000082038BD29462046BDE8384009F0B2B8BF2B0020F8B543689B6805460C4616462C
:2024E0001BB19847062800D0F8BDEEB92B7AA3421CD9093504EB44042C44677897B13346D3
:202500003A469A420BD9A378A2190136D05CFFF74DFFF3B2BB4205D262789A42F3D80023E3
:202520001B78FFDE0020F8BD0720F8BD7378FFDE70B54368DB6805460C4603B198472B7ACA
:20254000A3421AD9093504EB44042C4466789EB100252B46324693420BD2A3786219013505
:20256000D05C09F01FFEEBB29E4205D962789342F3D300231B78FFDE70BD00235B78FFDEB6
:2025800043681B6903B118471846704770B50A4B1D687DB12E7A4EB100242146013400222E
:2025A0002846FFF797FFE1B2B142F7D32B681D68002DEFD170BD00BFF404002070B5094B4F
:2025C0001D6875B12E7A46B10024214601342846FFF7AEFFE1B2B142F8D32B681D68002D4A
:2025E000F0D170BDF404002070B503780446852B00F2BF80DFE813F00002B201BE003A0291
:202600006602E300EA00BD00040117012A01BD00BD00BD00BD003D01BD00BD00BD00BD005A
:20262000BD00BD00BD00BD00BD00BD00BD00BD00BD00BD00BD00BD00BD00BD00BD00BD00CA
:20264000BD00BD00BD00BD00BD00BD00BD00BD00BD00BD00BD00BD00BD00BD00BD00BD00AA
:20266000BD00BD00BD00BD00BD00BD00BD00BD00BD00BD00BD00BD00BD00BD00BD00BD008A
:20268000BD00BD00BD00BD00BD00BD00BD00BD00BD00BD00BD00BD00BD00BD00BD00BD006A
:2026A000BD00BD00BD00BD00BD00BD00BD00BD00BD00BD00BD00BD00BD00BD00BD00BD004A
:2026C000BD00BD00BD00BD00BD00BD00BD00BD00BD00BD00BD00BD00BD00BD00BD00BD002A
:2026E000BD00BD00BD00BD00BD00BD00BD00BD00BD00BD00BD00BD005101860060011C02A7
:20270000E301E3008C4B8D49D3E9000290478C4B1C684CB1894D636820461B682946984780
:2027200023681C68002CF6D1864C63680BB10D209847FFF743FF01F075FB834B1B68002B1D
:2027400000F0FD810120814D08F02CFE2A78931EDBB2062B00F215827D49CB5C13B107F0B8
:202760002BF92A78022A40F00C8208F097FE01232B7070BD754D2A78931EDBB2062B00F26B
:20278000CD817349CB5C13B107F016F92A78022A40F0C48108F082FE6A4B5B6803222A704C
:2027A0000BB102209847664B1D6845B16B6828461B68214698472B681D68002DF6D15E4B71
:2027C0002146D3E90002BDE87040104790F902308278002BB4BF5F4B574B02F00F0203EB98
:2027E000C203D3E90002214690470028C1D0A0780207BED00307BCD4BDE8704008F078BF92
:20280000504B5B680BB1082098474D4B1D68002DAFD06B6828461B68214698472B681D68AC
:20282000002DF6D1A5E7474B5B680BB109209847434B1D68002D9CD06B6828461B68214628
:2028400098472B681D68002DF6D192E73D4B5B680BB10A2098473A4B1D68002D89D06B68A1
:2028600028461B68214698472B681D68002DF6D17FE7344B5B680BB10F209847304B1D68A3
:20288000002D3FF476AF6B6828461B68214698472B681D68002DF6D16BE72C4C2378062B07
:2028A00000F04F8103F0FD03052B7FF462AF08F0FFFD0223237070BD244DFFF77FFE09F0FB
:2028C00087FB2A78931EDBB2062B31D82049CB5C13B107F071F82A78022A29D108F0DEFD0D
:2028E000174B1C6800232B704CB11B4E636820461B683146984723681C68002CF6D10E4B69
:202900001549D3E9000290470E4B5B680BB10E2098472B78023BDBB2062B3FF62AAF0C4ADD
:20292000D35C002B3FF425AFBDE8704007F044B8082AD5D1D2E700BFAC040020D47C01007D
:20294000F404002058040020F8040020BF2B0020B07C010064040020D87C01009C4DFFF7D4
:202960002DFE01F055FA2A78931EDBB2062B00F2D9809849CB5C002B00F0D480022A03D01A
:20298000082A01D008F094FD934B5B6802222A700BB101209847914B2146D3E900029047B8
:2029A0008F4B1D68002D3FF4E4AE6B6828461B68214698472B681D68002DF6D170BD844DB2
:2029C0002B78032B00F0C68008F030FD00283FF4D0AE2A78931EDBB2062B40F2EB8081487B
:2029E00006F0BCFF2A78022A01D0082A01D108F055FD06232B7070BD754B1B78032B00F0D7
:202A0000A580082B00F0A280734B5B680BB100209847754B1D68002D3FF4ABAE6B682846D1
:202A20001B68214698472B685D68002DF6D170BD674D2B78032B7FF49CAE09F005FB0028F1
:202A40003FF497AE2A78931EDBB2062B00F2BB806049CB5C13B106F0AFFF2A78022A40F08A
:202A6000B28008F01BFD04232B7070BD584D2A78082A5CD0931EDBB2062B00F2868055497B
:202A8000CB5C002B00F08180022A00F0878005232B70514B5B680BB1032098474F4B2146EF
:202AA000D3E9000290474E4B1D68002D3FF461AE6B6828461B68214698472B681D68002DA5
:202AC000F6D170BD444B5B680BB103209847434B4649D3E900029047414B1C684CB1434DA3
:202AE000636820461B682946984723681C68002CF6D1374D2B78062B1ED0082B0BD09A1EC6
:202B0000D2B2062A4DD833498A5C002A49D0022B01D008F0CDFC02232B7070BD082A7FF4E6
:202B20003BAE37E62F4806F019FF2A7826E702232B7008F0C7FCACE707232B7070BD207AC1
:202B400001E608F0B5FC0823237070BD2848FFF74BFD59E709F078FA00283FF435AF2A78C0
:202B6000931EDBB2062B2BD81A49CB5C13B106F023FF2A78022A23D108F090FC04232B7075
:202B800022E7082A7FF4F3ADEFE5164806F0E6FE2B78022B02D0082B7FF479AF08F07EFCF9
:202BA00075E7104806F0DAFE2B78022BB3D0082BB1D0AEE70749CB5C002B7FF414AF0EE72A
:202BC000082ADBD1D8E7082A7FF44DAF49E700BFBF2B0020B07C010058040020AC04002045
:202BE000F404002008000020F8040020E07C0100DC7C01004360CA699A4205D38A690260E4
:202C00000B67CB610020704701F1280202608B6700207047F0B504680E7A002C00F072844D
:202C2000A4F212347C2C00F2C1827C2C00F2BE82DFE814F074020003DE02CF02C7022A0316
:202C400007032303BC02BC02BC02BC02BC02BC026702D702BC02BC02BC02BC02CC010F03B7
:202C6000E602BC02BC02BC02F401EE038C03BC02BC02BC02BC02FF00CB034803BC02BC0231
:202C8000BC02BC02BC02BC026402BC02BC02BC02BC0219019B039303AC035703BC02BC020B
:202CA000C3038403B40339035F03BC02BC024103DB015003ED00BC02BC023203DB00F50312
:202CC000BD00BC03BC02BC02BC02BC02BC02BC02BC02BC02BC02BC02BC02BC02BC02BC0214
:202CE000BC02BC02BC02BC02BC02C900D303BC02BC02BC026703BC02BC02BC02BC02AC0037
:202D0000BC02BC02BC02BC02AC00BC02BC02BC02BC02BC02BC027D00C002BC02BC02BC0222
:202D2000BC02B800BC02BC02BC02BC02B80001240025002A00F0CD8307795755A3424FF069
:202D40000005057140F27C83171901343D70B04D0F7D2D682D78AF4200F0B0838F7DAF42E1
:202D600009D10025A342057140F24D85254601340AB107795755DFF8A0C2A64F9CF800505C
:202D80003F780135EDB28CF800507BE1012500240AB1077917554024AB42047140F2898382
:202DA0006C1CC6E701240025002AE2D1E3E701240025002A40F031848D7D0571A34240F2FD
:202DC00062830134FFE001250024002A00F03D8307791755AB424FF00504047140F27E830D
:202DE000274602EB050C6C1CFDE201250024002A40F011840624AB42047140F23F83013512
:202E00000C7D0471AB4240F291836C1CD4E701250024002A40F003840524AB42047140F256
:202E200028836C1C2425A342057140F27583651CE0E701240025002A00F0FA83077957553C
:202E40004FF0000CA34280F804C040F29084651C0027AB4202F804C0077140F2F3835419E0
:202E600001352770F3E001250024002A00F0EF8307791755AB424FF02404047140F2C183B1
:202E8000274605F1010C002463455755047140F2A98325460CF101071024BB4202F80C5080
:202EA000047140F29083254607F1010C01246345D555047140F2788325460CEB04070524B9
:202EC000BB4202F80C50047140F25D83254607F1010C24246345D555047140F24A832546AF
:202EE0000CF101070124BB4202F80C50047140F23683254607EB040C03246345D55504711A
:202F000040F228830CF1010702F80C40BB4291F816C080F804C040F218837C1C0425A3427E
:202F200002F807C0057140F20B8302EB040C2F4601342425A3428CF80070057140F2FB82AC
:202F40002F46651C1755AB424FF00204047140F29F82274602EB050C6C1C0225A3428CF892
:202F60000070057140F2DD822F46651C1755AB424FF00504047140F27C82274602EB050C33
:202F80006C1C2425A3428CF80070057140F2C4822F46651C1755AB424FF00604047140F25A
:202FA0006D82571901353C700F7D0771AB4240F2BD826C1C5755A3428D7D057140F26382BE
:202FC000171901343D70124D2D6851E001270024002A00F04082057915559F424FF0000486
:202FE000047180F0F5827D1C39E101250024002A40F017830224AB42047140F249826C1C77
:203000000225A342057140F28C82651C04E700BFFC040020C02B0020C22B00200124002541
:20302000002A00F09883077957559C424FF00205057180F05883671C1555BB424C7E047121
:2030400040F2E48202EB070C7D1C8CF800400024AB42047140F221826C1C0AB107795755B1
:20306000C64D91F814C02D682F78BC4500F01A82DFF810E3DFF810C36F788EF800700025A1
:203080008CF80050BD423FD3BD4F3D780135EDB23D70AE4240F2CA810925A342057140F2E0
:2030A0005583651C002A00F0128307791755AB424FF00404047140F2B682274602EB050C9E
:2030C0006C1C8CF800700F7AAD4D2D78AF4240F2AC8305EB450501F10907DFF8A0C217F876
:2030E00005E080F804E03D449C42CCF8005080F07E82671C002A7FF46EAFACE10124002598
:20310000ABE701250024CDE70725A342057140F29281651C002A7FF45BAE96E1002A00F09B
:20312000EB8204791470012B4FF00B04047140F2238302250127D455AB420F7D077140F2BF
:203140005B8205F1010C022463455755047140F2448225460CF101070224BB4202F80C50BF
:20316000047140F22B82254607F1010C02246345D555047140F213820CF1010702F80C400C
:20318000BB4291F819C080F804C040F2F7817C1C0025A34202F807C0057140F2E581171949
:2031A00001343D70764F00253D7072E7002303601846F0BD002A00F0F2820579174601241E
:2031C000C4E5002A00F0F28205794FF0010C0027CCE7002A00F0EC82057901274FF0000C9B
:2031E000BAE7002A00F0FF8207799446012468E7002A00F0D78207794FF0010C0025A2E7D8
:203200005E4C002A00F0E68207792468944601258CF8007024780F7DA74200F0B9818F7D3B
:20322000A7427FF414AF0A249D42047180F0F5826C1C00E6002A00F0D28204790125002760
:2032400079E7002A00F0B08290F804C0012400279EE7002A00F0C182047901250027DFF8A7
:203260001CC1D455DCF80040AB426778077140F2A08102EB050C0135CAE7002A00F0B1826B
:203280000579174601248CE7002A00F08482047901274FF0000C71E7002A00F0A782077990
:2032A000944601246DE6002A00F08E82047901274FF0000C28E6002A00F0A18207799446FD
:2032C000012436E6002A00F000821446077927700125BCE6002A00F08E820779944601242F
:2032E0003BE6002A00F07282057901274FF0000CE5E5002A00F0608290F804C00124002750
:203300000CE61E4C0125276800241AB190F804C002F804C03C780F7DA74200F0E9808F7D15
:20332000A7427FF438AD0224AB42047140F270822C460135002A7FF42CAD2CE5002A00F057
:203340004782057901274FF0000CCBE5002A00F0BC8104799446012577E6002A00F0168220
:20336000057901274FF0000C96E5002A00F0458207794FF0010C002585E500BFFC040020C6
:20338000C12B0020C02B0020C22B0020002A00F0308205794FF0010C002787E5002A00F0C6
:2033A0000F8205794FF0010C0027A5E5002A00F0F48105791746012404E6002A00F02182CB
:2033C00005794FF0010C002783E5002A00F0F68190F804C0012500243AE5002A00F0EA81C9
:2033E0000779944601248CF80070C14FC14D3F682D7897F801C0AC4540F2148297F802C096
:203400003D44A34215F80C5005716CD9651C7CE7002A00F0D7810579012700240CE6002AE6
:2034200000F0B681047917460125BCE540F2993303600120F0BD40F26D3303600120F0BD92
:203440004FF4617303600120F0BD0524AB42047144D96C1CC9E79F42027180F0B9807D1CAE
:20346000A34C2468AB426778077140F2A2800135D0E640F2553303600120F0BD40F25733A6
:2034800003600120F0BD40F2593303600120F0BD40F2513303600120F0BD4FF44F730360BD
:2034A0000120F0BD0525A342057140F21781651CDBE440F2833303600120F0BD0D6AA3423A
:2034C0002D7805713FF652AC40F2893303600120F0BDA3420271B3D9013438E440F26E3377
:2034E00003600120F0BD40F2723303600120F0BD0324AB4204713FF61BAF40F277330360CC
:203500000120F0BD08240471002B7FF407AE40F2123303600120F0BD40F256330360012002
:20352000F0BD40F2523303600120F0BD4FF4567303600120F0BD4FF4547303600120F0BD7E
:2035400040F24F3303600120F0BD4FF4537303600120F0BD40F24B3303600120F0BD40F239
:203560004A3303600120F0BD40F2193303600120F0BD40F2493303600120F0BD4FF4467313
:2035800003600120F0BD4FF4527303600120F0BD02249D42047180F0F4806C1C40E540F284
:2035A000173303600120F0BD40F2453303600120F0BD4FF44A7303600120F0BD40F2163309
:2035C00003600120F0BD4FF4517303600120F0BD40F2273303600120F0BD40F215330360E8
:2035E0000120F0BD40F2433303600120F0BD40F2263303600120F0BD4FF4457303600120E9
:20360000F0BD40F2423303600120F0BD40F22E3303600120F0BD0779BCE40779CAE4077993
:20362000A4E407798EE440F2213303600120F0BDA342027140F29B80013400259C42057106
:20364000C0F0938040F2353303600120F0BD2424AB420471D5D96C1C00259C420571C1D2F0
:20366000013410259C420571ADD2013401259C42057199D22C4405259C42057183D201347B
:2036800024259C420571BFF474AF013401259C420571BFF464AF2C4403259C420571BFF4A3
:2036A00059AF01348D7D05719C42BFF44EAF01340425A34205717FF643AF01342425A3423C
:2036C00005717FF638AF651C94E40125BFE40424AB420471A7D90F7A6C1CF5E440F24133BC
:2036E00003600120F0BD40F22D3303600120F0BDFC040020C22B00200B24012B04713BD9C5
:2037000002240D7D05719C42BFF476AF01340225A34205717FF661AF013402259C420571E1
:20372000BFF44CAF01340225A34205717FF637AF01344D7E05719C42BFF420AF0134002599
:203740009C420571BFF410AF01342BE54FF4487303600120F0BD02259C420571C3D20134EA
:203760004D7E05719C42BFF451AF651C6FE44FF44D7303600120F0BD40F213330360012073
:20378000F0BD4FF44B7303600120F0BD012468E70125FFF735BB0124CBE7012413E40124B2
:2037A000FFF7D5BA0124B2E70124C8E70124BAE70124B2E7012418E6012479E701243CE77E
:2037C000012469E70124CBE701246BE7012452E701245BE7246801251CE5012540E601243D
:2037E0008FE70124DEE4374601246DE40124FFF719BB01243AE7012402E401242CE70124DC
:203800005CE701243CE740F28E3303600120F0BD4FF45F7303600120F0BD40F233330360B8
:203820000120F0BD00231B78FFDE024A002313601B78FFDEFC04002070B90B681A7B202A3A
:2038400001D0062070471A4652F80E1F9961918892799A7799837047032070474360CA6931
:203860009A4210D38A6910B40260C8690C6FC01A1C441A44C86100380C6718BF01205DF80B
:20388000044B8A61704701F12802026000208B67704700BF2DE9F0470B7888B00D4606468A
:2038A0000E2B14D8DFE803F008180808130D281313181308080808000024204608B0BDE859
:2038C000F0874B78DA0930D15B09012B4CD00624204608B0BDE8F0870368002403F1340201
:2038E0002046C3E91E44C3E920445A671C845C62DC6208B0BDE8F087027A8B78002A00F07A
:203900006581817A0930002900F05E81F17A415C9942D1D01B061ED4EF7807F0FD03012B74
:20392000CAD0002F65D00324C7E713F0600FC3F3411200F09180012AC9D18B78212BC6D18D
:20394000B1F80720072AC2D10168681C183100F073FA0446B1E7EC78002C00F09D80032C92
:2039600014BF03240024A8E78B780768202B00F09B80222BABD1B1F80730002BA7D1B1F8DD
:20398000035097F820303D8405F0010203F001039342154690D0C3691BB1C2F10301C9B28B
:2039A0009847002D88D1337A012B40F20B81737B06F10C04002B00F00381B37BE05C08F015
:2039C0006DFB337A012B40F2FD80737B012B40F2F780B37B23442C46587808F05FFB07F113
:2039E0003403C7E91E55C7E920557D62FD627B6763E73568012A05F10C0140F2DF80727B95
:203A0000012A06F10C0340F2D7800691B27B704905911344AC6A93F80180002C60D1EA6FAA
:203A2000EB6AAC67C5E91F42002B00F0B480296B1846002205F1240383E803004046EA624F
:203A400005A9FEF733FD0446F369002B3FF435AF30460021984730E703F01F03012B7FF46A
:203A600036AF8C78062C7FF432AF05A8039200F0D5FC03AA00920746EA78297930463B464D
:203A8000FEF7E8FA05283FF418AF039A3946681C00F0D2F9044610E7F369002B3FF40CAF17
:203AA00030460121984708E7B1F80720072A7FF40EAF3B73B1F80730DBB27B7300200E3701
:203AC000CDE90573079000F08BFF002005A9FEF7D9FC0446002867D0002000F089FFECE6FC
:203AE000D5F88490686A4C4528BF4C4605F1340A2246514613F027FCE86FEA6AEF67A9EB1B
:203B000004030AEB04010444C5E91D13C5F88040002A43D005F12C0797E8030005F12404FB
:203B2000002284E80300EA62002B3BD091461BE0696F686A13F007FCD5E91D32A96AC5F813
:203B400080100B44521AC5E91D32F36913B1002130469847EB6A13B397E8030084E803007B
:203B6000AB6FC5F82C90EBB1AA6A9342E0D2696F686A1A4613F0E7FBD5E90932A96FE9672B
:203B8000521A0B44C5E9093253B1404605A9FEF78DFC044658E700236B6255E700236B6226
:203BA000002451E76B6AEFE70A4B049603A9039300F020FC04468FE73B78FFDE7B78FFDEA1
:203BC0002B78FFDE6B78FFDE0B78FFDE5378FFDE5D3800003938000010B503681C8CE407D4
:203BE00084B015D50B46017A012916D9417B00F10C0481B1817B605C91060CBF0124002470
:203C000001A9CDE901320394FEF73CFC04B010BD082004B010BD0B78FFDE00235B78FFDEF0
:203C20000368D3F880007047F0B50468238CDB0783B022D50546002016460F4600F0D0FE71
:203C4000A26F42B9636AE3B11124002000F0D0FE204603B0F0BD964228BF1646616F3246BB
:203C6000384613F070FBD4E91D239B1B3244C4E91D23C4F880600024E7E70824204603B06F
:203C8000F0BDC4E909762A7A012A12D9697B012905F10C020FD9AB7B0849009113440C34F8
:203CA000587801946946FEF701FC041E08BF9224CBE75B78FFDE1B78FFDE00BFF52B0000AE
:203CC000002070472DE9F04F4B6885B0CDE900020C46002B71D007F007FDE568019B9D4297
:203CE00028BF1D468146002D7CD04FF0000A5646D3464FF00108D4E90113AB421F4628BFEA
:203D00002F46E9B13A4609EB060013F01CFBD4E90223D21BDB1BC4E90223C4F804B0ED1BF1
:203D20003E442AB3002B08BF4FF00008002DE2D1009BC3F800905E60404605B0BDE8F08F08
:203D4000ABB120463B4650F8101B4A68D2F804A009EB0602D047D4E90223D21BDB1BC4E908
:203D60000223ED1B3E445AB14FF0010ADAE7E368BAF1000F04D15BB99846002DBBD1D7E73B
:203D800022681268126822604FF0010A002BF3D02168F1B1CDF808B003E0A3682168013398
:203DA000A3604B6800225F6802A80123B8470028F3D12061002D9ED1BAE70B681B681B6874
:203DC000002B88D18B68002B85D1036043609846B2E76160002EABD0019BB34288BF4FF0ED
:203DE0000008A5E72E464FF00108A1E7054B0528187004D0044A137823F002031370034853
:203E0000FEF7F2BBC32B0020C42B0020087D010008B50020FEF7CAFABDE808408020FEF745
:203E2000C5BA00BF08B50020FEF7D4FABDE808408020FEF7CFBA00BF70B5C38893421E4631
:203E400028BF1646934284B00D4612D8002400200394CDE9015600F0C3FD01A98020FEF702
:203E600011FB044688B1002000F0C2FD204604B070BD8020144607F02BFBB4FBF0F202FBF8
:203E80001044B4FA84F46409E1E707F007FD80280BD1094A094B92E8030083E80300002042
:203EA00000F0A6FD204604B070BD002000F0A0FD1024204604B070BD407D010024050020F9
:203EC0002DE9F04F0B780E2B89B018D8F3B1013B0D2B1BD8DFE803F01F0E281A354C1A1ABF
:203EE0001A1A0E666F07B24B1B78012B02D00120FFF77CFF0024204609B0BDE8F08F852B6D
:203F000004D1AB4B1B78032B00F040810624204609B0BDE8F08FA64B1B78032BF6D003205C
:203F2000FFF764FF0624E6E7A24805F09BFC0028E0D0A14B01221A60BFF36F8FBFF34F8F1A
:203F4000D8E705230DF115008DF8143007F00EFC9DF81530994E002203F01F043260032CE3
:203F600000F2B980DFE814F0E800B90099008D00C87803280D46C9D0904E3368002B00F099
:203F800003810022716832609847044600287ED13368002B00F00581AB78002BAAD107F074
:203FA00007FCA8E7824B1B78002BA3D00020FFF71DFF00249FE74FF08043D3F8383413F059
:203FC000010F7B4B1B7806D0022B93D00220FFF70DFF00248FE7012B89D18BE7BDF81B305C
:203FE000002B00F0D880092B28BF09239946FEF7F3F90546002800F0DB81BB464FF0090A35
:20400000CDF80CB04FF0000801E008F101086A68012357682946002203A8B8470028F4D118
:204020002A682B7A15681C44C244E4B2002DE7D1634D644928464A4613F085F92C71A5F8D5
:2040400002A0FEF7ABF918B1EB7943F02003EB71FEF7C2F95C4BBDF81B2018600020C3E9BB
:204060000159DA6000F0BCFC58498020FEF71EFA0446002800F09F81002000F0B9FC062C3D
:2040800005D105A8FEF7E8F90446002C73D007F0FBFB204609B0BDE8F08F9DF81900020727
:2040A00007D005A9FEF7C2F906280446EDD19DF8153013F0600F0ED19DF816303C4A9DF874
:2040C00019401278012B00F0B980032B00F0A680002B00F0C6800624D9E79DF8190003A9BF
:2040E000FEF780F90546002859D09DF80C1005AAFEF798F906280446C7D19DF8152012F0F4
:20410000600FC4D12A4B9DF80C101B78D20940F014819DF816200B2AB9D1052B40F0B28026
:20412000BDF81730FF2B00F2FC809DF817202846FEF7D0F90446A8E713F0600FC3F341179A
:204140009FD1DB0948D19DF81630032B00F09C80092B00F0A880012B93D1BDF81730012BD9
:204160008FD1FEF71BF9002800F0D980184A137823F00203137033686BB107F08FFB04465B
:2041800000287FF4B7AE0AE70E2480E70420FFF72DFE0624AFE607F06DFB0024ABE6102449
:2041A00075E70C4B1B68082B33D007F063FBA2E6C32B00202C0500205C7002402405002000
:2041C000300500200C7D01000C050020487D0100C42B0020300100109DF81620062A00F0CE
:2041E0008780082A73D0002A7FF44BAF7B497C4B09781A80890744BF02221A7078490DF106
:2042000015000222FFF718FE0446062C7FF43DAF37E7744B1B68002BC7D16BE625073FF5AA
:204220005AAFBDF81730002B7FF455AF052A01D0200727D1204607F05BFA9CE721073FF527
:204240004AAFBDF81730002B7FF445AF052A01D0230717D1204607F079FA204607F0B4FDE7
:2042600089E7052A01D027070CD1204607F04CFA5B49034602220DF115000B80FFF7DCFDA2
:20428000044602E7082402E7BDF81730012B7FF4F8AEFEF783F8002841D0504A137843F094
:2042A0000203137067E7504C2378043B012BE9D89DF81730BBB3012B33D1FEF767F923785B
:2042C000052B3FF458AF0520FFF790FD53E7464A1278052A47D0042A7FF4D3AE404B1F70F6
:2042E0003F490DF115000122FFF7A6FD04468CE79DF81830022B3FF471AE032B36D0012BEE
:204300007FF4BFAEBDF81B30002B3FF444AF37490DF115001222FFF78FFD044675E70F244A
:20432000B5E60724B3E6FEF749F92378042B3FF422AF0420FFF75AFD1DE79DF816705FB377
:204340000A2F7FF4A4AE052B9CD128460192FEF717F92349019A03460B700DF11500FFF7E8
:204360006BFD044691E61E4A1370B9E7BDF81B30002B3FF410AFBDF819109DF8170000F0F2
:204380001DFB014600283FF47CAE0A780DF11500FFF752FD044638E7052B7FF473AF1049D8
:2043A0000DF1150002220F80FFF746FD04466CE64FF0090A3CE607F071FA802808D10C4BB4
:2043C00093E8030086E80300204600F011FBD2E6204600F00DFB102459E600BFC42B002035
:2043E0003005002034010010C32B00202C7D0100407D010038B505460C4607F04FFAA842F9
:2044000007D194E80300044A82E803000023184638BD1023184638BD2405002008B1402329
:2044200003600148704700BF30050020F0B40D7A0DB101F109050468002C59D06FF4AB76D7
:204440003444142C00F24A81142C00F24781DFE814F05400E700EE00F500FC0003010901FA
:2044600010011701450145011E0125012C0145013B0033012700390115003F010125002460
:20448000002A40F0DB818A8AAB424FEA1222027140F2338140F26D1303600120F0BC704706
:2044A00001250024002A40F0CD814A8AAB424FEA1222027140F226816C1C8A8A0271A3429C
:2044C00040F27B81651CDEE701250024002A40F0B7810A8AAB424FEA1222027140F2178161
:2044E0006C1C4A8A0271A34240F26C81651CDCE709240471002B00F0F680002A00F0A48133
:2045000004791470012B4FF00404047140F2F0800227012694559F422D78057180F0898161
:204520007E1C0024B342D555047140F27D812546771C0024BB429555047140F270812546ED
:204540007E1CFF24B342D555047140F263812546771C0124BB429555047140F25681254601
:204560003E190124B342D555047140F249812546371900249F429555047180F03C81254678
:204580007E1C09249E42D555047180F02F812546771C21249F429555047180F022812646B3
:2045A0007C1C09259C42D655057180F015811619013435700E7C0671A34240F20881651C85
:2045C00016550E8A9D424FEA1626067180F09F8057196C1C3E708E7C06719C4280F0F28097
:2045E000651C16554E8A9D424FEA1626067180F0898057196C1C3E700E7D0671A34240F2F4
:20460000DC80651C1655898A9D424FEA1121017173D22A44117040F26D13036001203DE7F5
:20462000002A00F0B38004790127002672E7002A00F0A58005790126002772E7002A00F08B
:20464000978005790127002673E7002A00F0898005790126002774E7002A5DD005790127D6
:20466000002676E7002A00F09E8005790126002777E7002A00F0958005790127002678E7FB
:20468000002A00F08C8005790126002779E7002A00F083800579012700267AE7002A00F064
:2046A0008A800679012400277BE7002A00F081800579164601247CE7002A78D006791746F8
:2046C000012487E7002A70D006791746012492E7002A3FF4DFAE017911709CE70023036075
:2046E0001846F0BC704740F2571303600120F8E74FF4AC7303600120F3E740F26B13036027
:204700000120EEE740F2691303600120E9E740F2671303600120E4E701240122A342027106
:2047200073D914440122A342027169D9144400229C4202715FD2013409229C42027155D244
:20474000013421229C4202714BD2013409229C42027141D201340A8A0271A34237D9651CFD
:20476000B7E60124FF229C42027153D20134D4E701240022A342027151D90134F2E70124F4
:204780000022A34202714FD90134F2E701242A780271A3424DD90134F2E70124D1E7012414
:2047A000CAE70124C3E70124BCE7012485E6012497E60124CFE70124C8E74FF4B573036002
:2047C00001208EE74FF4B4730360012089E74FF4B3730360012084E74FF4B27303600120A1
:2047E0007FE740F26313036001207AE74FF4B1730360012075E740F25F130360012070E700
:204800004FF4AF73036001206BE740F25D130360012066E74FF4AE730360012061E740F288
:204820005B13036001205CE74FF4AD730360012057E740F259130360012052E70679E1E67D
:204840000679BDE60679CCE60422012B02717FF64FAF02249BE700BF0B780E2B0BD8DFE800
:2048600003F0080808080A0C080A0A0A0A08080808000020704706207047F0B54B78DA09C0
:2048800085B00C46064611D15B09012B02D0062005B0F0BD8C78002CF9D102681373036A22
:2048A000002B3AD0214698472046F1E713F0600FC3F3411215D0012AE9D18B78072B07D0EE
:2048C000082BE4D1F268481CB169FFF7B5FADFE7B1F80720182ADAD1C169601CFFF7ACFAAE
:2048E000D6E703F01F03012BD1D18D78062DCED103A80292FFF792FD02AA00920746E27898
:20490000217930463B46FDF7A5FB0528BFD0029A3946601CFFF790FABAE71846B8E700BF42
:2049200070B54FF0805286B0D2F8A830D2F8A42000926FEA83436FEA93430B4A0B4E9BB200
:2049400002A80D210BF070FF02AD002404E015F8013B06F8013B013402A812F03BFD8442FC
:20496000F5D306B070BD00BF647D0100FC2B002038B5114B53F8204023780BB9A01C38BDA0
:204980000020FFF74BFD217891B12246C4F101055319DCB2234620F8141012F8011F0029C9
:2049A000F6D101335B00DBB243F44073038038BD40F20233FAE700BFCC7D010040B1052843
:2049C00008D8054A105C28B1044B53F820300BB1FFF7CEBF00207047E47D0100CC7D0100B7
:2049E00072B6024A136801331360704770050020034A1368013B136003B962B6704700BF14
:204A00007005002010B50446006830B1002107F03FFF54F8040F0028F8D110BD2DE9F043ED
:204A2000038883B0044643B1B3F5867F0CD1822910D0012003B0BDE8F0834FF4867301201C
:204A4000238003B0BDE8F08300230380032003B0BDE8F08301F0EEFABFF35F8F19491A4B14
:204A60000E6800220A601F781A70FFB2BFF35F8F164D01F0E3FA28680028DED0DFF8509074
:204A8000DFF8508003E055F8040F0028D5D090F84A3026FA03F3DA07F5D590F8493047FA5A
:204AA00003F3DB07EFD500F0CBFD0028EBD02B68D9F80020009218464246022100F03CFD77
:204AC000E1E700BF84050020C52B0020600000203C2D0020754B000010B50C4A90F84B30AF
:204AE000126882B001330092044680F84B30084A03468021203000F01FFD064B1978224625
:204B0000002002B0BDE8104007F046BF3C2D0020D94A0000FD37002010B4094A094C1368EB
:204B20001943116021780346012202FA03F30B43DBB2237004485DF8044B07F05BBF00BF83
:204B400084050020C52B00206800002010B5044690F84A1090F8490001F02EFA10B994F8E4
:204B6000480010BD01280ABF94F84800002080F0010010BD70B582B0044600F061FD08B94C
:204B800002B070BD04F12006304600F059FD05462046FFF7DBFF01280FD00028F0D1002DC0
:204BA000EED1304600F032FD0D4B22462846197802B0BDE8704007F0EFBE002DE0D0094B06
:204BC000094A1B68009300253046234684F84B507E2100F0B1FC054B28462246E7E700BF62
:204BE000FC3700203C2D0020D94A0000FE370020F8B507F045FE304B304C187007F040FEC6
:204C00002F4B304F187007F03BFE2F4922682F4B08700025FF2139727B60FD60002A42D08B
:204C20002B4E09E091F84A00F9683A72834054F8042F0B43FB60B2B392F84A3092F84910FB
:204C4000526C03F01F0343EA41131F2BC6BF03F01F0331464FF0A04103F5E07342F08C027A
:204C600041F82350236893F84A1093F8490001F061F9226892F84A3092F8490003F01F0383
:204C800043EA4010012105F05FF82168387A91F8492082424FF00103C4D0FF28C2D054F85C
:204CA000042F002AC8D10B48002107F0F1FDBDE8F840044801F094B9FE3700206000002069
:204CC000FC37002074050020FD370020194B0000000300506800002030B5174B83B00022B9
:204CE0001A6004F0F1FD00BB002004F009FE134B134A93E80300FF250090ADF804100624B2
:204D000000231048ADF8005069468DF802408DF8043005F08FFA58B901210A4805F0DEFA24
:204D2000084805F0CFFA03B030BDFDF72BF9DBE7FDF728F9F0E700BF88050020187E0100FC
:204D4000754D0000207E0100014B1868704700BF8805002008B5064A13680133136000F0E4
:204D600085FD00B908BDBDE8084000F05BBD00BF88050020042800D07047FFF7EBBF00BFC0
:204D8000014B1868C0097047880500202DE9F04107F08EFCFFF7A0FF0AF0D2F807F09AFD6B
:204DA00000216548654FDFF8E881654D654C664E07F06EFD00F0B2FB0FF094FE0BF050FD42
:204DC00007F07EFC07F034FE604B1B6898477B689847D8F804309847A979EB79226803EB89
:204DE0000123022A338022DC594B29686A6819605A605848002107F04BFD4FF0FF300DF00D
:204E0000E9FA2368022B05467EDC07F07BFC5248FFF7F8FD0FF090FE07F062FD04460FF033
:204E200093FE14F0FF0FF7D107F072FCF4E74B4A4B494C4807F088FC4B4807F0EBFD236892
:204E4000022BD1DD454A4649464807F07DFC474B4748196807F078FC2368022BC4DD3F4A6C
:204E60003F49404807F070FCD8F80010414807F06BFC2368022BB7DD384A3949394807F030
:204E800063FC39683C4807F05FFC2368022BABDD324A3349334807F057FC38484AF6CD3181
:204EA00007F052FC2368022B9EDD2C4A2C492D4807F04AFC32481A2107F046FC2368022B37
:204EC00092DD264A2649274807F03EFC31882D4807F03AFC2368022B86DD204A2049214832
:204EE00007F032FC284807F02FFC2368022B7FF77BAF284601F0E2FA2368022B7FF774AF17
:204F00000A2007F085FD6FE7144A1549154807F01BFC1E4807F018FC2368022B7FF775AFAE
:204F2000284601F0BBFA2368022B7FF76EAF0A2007F06EFD69E700BFAC000020387F0100F3
:204F40002C2C0020CC000020B02B00203084010034300020F0010020B0830100287E0100CD
:204F6000307E0100387E0100487E0100B8850100807E0100907E01009C7E0100A87E010076
:204F8000C47E0100E47E0100F47E01000C7F01003886010030B590F82D50012D83B0044618
:204FA00011D91F2507F0AEFD094BB0FBF5F11B68009301FB1501074A234604F10C0000F069
:204FC000BBFA03B030BDE91C01258D40013DE9E73C2D0020595000002DE9F0470D468B68B1
:204FE00092F82C708146506BD3E90068144601F031FA686807F058FDA968134801F01EFBDD
:205000001248294601F01AFB636B1B6873B10023A3852046FFF7BEFF36B13A46494640466C
:205020003346BDE8F0471847BDE8F08704F10C0000F0ECFA2146064801F00CFA2146054869
:2050400001F0FCFAE8E700BF7800002090000020F405002084000020F8B12DE9F047436B32
:205060001D6882B00446ADB1686807F033FD63490C2007F005FB0121072007F0F5FA00F0EC
:2050800059F900280ADAAB6823B1052022462946FFF7A2FF02B0BDE8F087704707F03EFA84
:2050A000DFF85C8190F80290D8F8047007F036FA064607F03DFA01463046B84707F0F0FAA0
:2050C000D8F818600746B04770BB002F50D1D8F81CA0D04740BBD8F8087007F029FAB847CA
:2050E00000285CD002281FD0AB68002BD2D00420CCE709F059FF6FF028031E1A03E009F09D
:2051000053FFC64202D5D0470028F8D0D04700285DD0D8F81030032101A89847032803D130
:205120009DF806304B452AD0AA68002AB2D094F82D300133DBB2052B84F82D3094F82C30C1
:2051400006D90133DBB2002184F82C3084F82D10127A9A4205D8224629460120FFF73CFF8F
:2051600098E72046FFF716FF686807F097FC91E7D8F8086007F0DCF9B0470028B2D1AB68B4
:20518000002B87D094F82C3000200133294684F82C3084F82D002246FFF71EFF7AE709F08C
:2051A00003FF6FF018073F1A03E009F0FDFEC74202D5D0470028F8D0B047002899D1D047B8
:2051C000002896D1D8F814309847002891D0A96800293FF45FAF94F82C300133DBB200227E
:2051E00084F82C3084F82D200A7A9A42B9D8224629460220FFF7F0FE4CE700BF2C2C0020D6
:20520000308401002DE9F04105460D200F4607F03FFA064601F082F901210B2007F024FA7B
:20522000374B1C6814B914E0246894B13146201D01F0BCF80028F7D0606B01F025F9072885
:205240001EDDDDB138462B460122BDE8F041062118472C4801F0D6F904460028F1D0314679
:20526000201D01F09DF8002304F13002C4E90C322348A385214601F0A1F8DDE7BDE8F081D8
:20528000214801F0BFF9064660B3204801F0BAF9B06018B307F0E0FB7060D8B10520D6F898
:2052A000088007F0E7F9C8E9005710F0FF0006BF082388F8083088F80800606B314601F025
:2052C0007DF8636B1B689E42D8D12046BDE8F041FFF760BEB1680D4801F0B0F90A4831465E
:2052E00001F0ACF9606B01F0CFF80028A9D12146034801F0AFF82146024801F09FF9A0E7E8
:20530000F405002084000020900000207800002008B5054801F064F9044801F061F9BDE8F4
:205320000840034801F05CB990000020780000208400002010B501210B2007F095F9024B04
:20534000BDE810405B681847707F0100014B9B68184700BF707F0100014B1B6A184700BFFA
:2053600030840100014B5B6A184700BF3084010010B50D4B82B01B6898470C4B04469B6A3D
:2053800001A91920984701280BD0002C0198B8BF15248028D4BFC4EB0000C4F1800002B001
:2053A00010BD002002B010BD707F010030840100FFF728BF00B583B007F0B4F8032802D176
:2053C00003B05DF804FBFFF7C1FF0028F8DB0D2007F05EF91F4900F0E9FFE8B10C2007F09E
:2053E00057F91C4900F0E2FF0028E9D101F0A0F8B8B1072007F03EF90028E1D00223ADF85B
:20540000043007F08BF8144B8278DB688DF80620032101A89847D3E707F042F90028DDD129
:20542000CEE701F0ABF8072007F024F918B90B4B9B689847C4E70223ADF8043007F06EF8D9
:20544000054B8278DB688DF80620032101A89847EDE700BF2C2C00203084010038860100E9
:2054600030B50D4C83B0A56A69461920A84748B901A90420A84738B101F048F8FFF748FFC0
:20548000236A984703B030BD0199E36A21F00201019104209847EFE730840100F8B50388AD
:2054A00005462BB14A2B14D1882916D00120F8BD174B1C6834B1A168201D00F0B9F92468BF
:2054C000002CF8D1134B01221A704A232B800120F8BD002303800320F8BD0D4B1C68002C58
:2054E000F3D0231D9A4205D02468231D002CECD09A42F9D10648084E214600F0ABFFD4E93C
:205500000523376832600BB1E06998473760DCE7D4060020C62B00203C2D0020034A044BC4
:20552000044800211170196007F0B2B9C62B0020D40600209C00002070B50E4C049E25781D
:205540004661C0E90623044635B9A1600A482146BDE8704000F032BF084D094B2E682B60E0
:20556000043000F065F92E6021460348BDE8704000F024BFC62B0020D40600203C2D0020AD
:205580009C00002070B50C4B1B7804462BB921460A48BDE8704000F011BF094D094B2E6804
:2055A0002B60043000F04EF92E6021460348BDE8704000F003BF00BFC62B0020D4060020E4
:2055C0003C2D00209C00002070B50C4B1B7804462BB921460A48BDE8704000F0EFBE094D48
:2055E000094B2E682B60043000F036F92E6021460348BDE8704000F0E1BE00BFC62B0020EF
:20560000D40600203C2D00209C00002010B50A4B1B7804463BB9C0E9033321460748BDE826
:20562000104000F017BF043000F028F921460348BDE8104000F00EBFC62B0020D4060020A0
:20564000094B1A7842B9094B01E0984209D01B68002BFAD1012070470069B0FA80F0400964
:2056600070470020704700BFC62B0020D406002010B50446C0B20FF001FA0A2C01D02046EA
:2056800010BD0FF0CBF9204610BD00BFF8B588B10F46461E002500E0013516F8014F2046EA
:2056A0004CB1AF4207D00FF0E9F90A2CF4D10FF0B5F9F1E705460FF0B1F92846F8BD00BFEE
:2056C00010B5FFF741FB0B4B1A68D2E9003192680B44191A52B1D2E9003423441B1A92680B
:2056E000994228BF1946002AF5D14318024A136010BD00BFDC060020D80600202DE9F843A2
:20570000038805465BB3592B2CD187292FD0822920D12C4FDFF8B4803C684FF00009CCB1EA
:20572000002603E0A3682646A3B11C4620460CF0FFFB0028F6D0E0682246882107F02CF974
:2057400003464046002B2AD007F054F9A3682646002BEAD159232B800120BDE8F883194AE9
:205760001360F7E7002303800320BDE8F883154F3968002019B9EDE789680120D9B1CB6855
:205780009342F9D000B139608B68002BE2D0D868904207BF9B688B6019469B68F5E7E3600A
:2057A000A3686EB1B3603B68C4F808902BB1FFF787FF3C68B3E73960CCE7034A1360C9E763
:2057C0003B60F1E7DC060020D8060020AC00002010B50446104807F00DF91049E3680A6810
:2057E0004BB142B194420FD0134601E09C420BD09B68002BFAD10A4BA2601B68E3600C6090
:20580000BDE81040FFF75CBF054B1B68E360BDE81040FFF755BF00BFAC000020DC060020E0
:205820003C2D0020014807F0E5B800BFAC00002010B504460CF060FB2046BDE81040FFF7C0
:20584000C7BF00BF10B504460CF05EFB2046BDE81040FFF7BDBF00BF10B504460CF062FBAB
:205860002046BDE81040FFF7B3BF00BF024B1868003818BF01207047DC06002010B5124BCE
:2058800019688142044614D00B462BB19A68A24206D01346002BF9D10023C4E9023310BD8D
:2058A000A2689A6049B1FFF70BFF0023C4E9023310BD82681A60002AF5D1044B00221A60D9
:2058C0000023C4E9023310BDDC060020D8060020014B1888704700BF2C04002000283ED00E
:2058E000037A022B30B410D00378022B15D00379B3B10024C37913F0030318BF012301B1B7
:205900000C6002B1136030BC7047C579447A037965B90CB9012BF2D0DBB100231C46EEE723
:20592000447A14F0030418BF0124E3E7C4B1032D37D1032C2ED0022C24D143BB022D2DD0B1
:205940000123032D24D1A4F10204B4FA84F46409D5E7023C012C8CBF00240124CFE77047A8
:205960004BB9022D08BF0123EAD1A4F10304B4FA84F46409C3E7032D01D0022D02D1234609
:205980001C46BCE7002BC8D1022DDAD1EDE701230024B4E7002BC0D10123D4E701231C468C
:2059A000ADE7022DC7D1002BF1D1022C4FF00103DBD11C46A3E700BF30B500230B608B8059
:2059C000437DDB075CBF01230B70037E012B83B00D46044623D901AA694604F11000FFF79D
:2059E0007DFF009B0BB10223EB70019B0BB102236B70E37D03F00303022B03D0032B14BFA2
:205A000000230823AB70637E03F00303022B03D0032B14BF002308232B7103B030BDC37D78
:205A200013F0030309D0437E13F0030305D0C38B828B9B1AB3FA83F35B092375CBE700BF45
:205A400002280CBF012307230B441A78FF2A184603F1FF3303D18142F7D10120704700201E
:205A6000704700BF30B583B06946FFF7A5FF9DF800309DF801509DF802409DF803109DF890
:205A800004209DF8050002332B4423440B441344184403B030BD00BF70B443788278057886
:205AA000C478DB00120102F0100203F008031343027905F0070564012B4304F0200492016A
:205AC000234302F0400213430B7043798579467AC479027A03F001036D0043EA861305F009
:205AE0000205A0002B4300F00C001201034302F03002134370BC4B70704700BF70B582B00E
:205B00000D4604466946FFF757FF04F110002946FFF7C2FF9DF80030012B04BFA37EAB70D2
:205B20009DF801300CBF03200220022B06D1A38B2B54A38B421C1B0AAB5402309DF8026005
:205B400056B1731E234429181A7801F8012BA34203F1FF33F8D130449DF80330022B06D13A
:205B6000E38B2B54E38B421C1B0AAB5402309DF8046056B1F31D23442918073413F80129EE
:205B800001F8012BA342F9D1304402B070BD00BF30B40278437802F00700C2F3C005C2F3DE
:205BA00000140870C2F34010C2F380124D708C7003F00105C3F34004C8700A71C3F3810077
:205BC000C3F301129B094D718C71C87130BC0A724B727047012943DD2DE9F04186B00F466C
:205BE00003A914460546FFF7D3FF03AB03CB9DF811201B882383206161616AB3AE1C03A82C
:205C000002AA01A9FFF76AFE9DF81380B8F1000F43D0029B002B31D1B8F1020FA38367D0FC
:205C2000B8F1030F4DD09DF81580B8F1000F2CD0019BBBB9A38BE383B8F1020F4DD0B8F18A
:205C4000030F31D0701B3B1A8742C4E90E6300DA002006B0BDE8F081AB78A376EE1CCEE7A9
:205C600000207047717816F8023B029A03EB01239BB2E383002ADFD1A383DDE7727816F8FC
:205C8000023B03EB02239BB2C6E71E4904F1080000F086FBA4F81E80D4E71A49204600F037
:205CA0007FFBA4F81C80BEE706F10800034604F1080213F8011D02F8011BB342F9D10646FC
:205CC000C0E706F108000346621E13F8011D02F8011FB342F9D10646A5E70A4904F108002B
:205CE00000F05EFB7378237216F8023B6372A9E70449204600F054FB7378237016F8023B70
:205D0000637090E77C7F010030B591B006F0F6FB044606F007FC6A4601462046FFF75AFF41
:205D200000283ED0044606F0CDFBD0B39DF810100B2006F099FC9DF81310072006F094FCD2
:205D40009DF817308BB1BDF81C50FFF7C1FD854205D0BDF81C204FF6FF739A4221D19DF8AF
:205D600017006946FFF76CFEB0B102A90C2006F087FC9DF815303BB14FF6FF71062006F0B5
:205D800073FC204611B030BD9DF81A10062006F06BFC204611B030BD69460D2006F070FCEC
:205DA000E3E74FF0FF34ECE7F8B505460B2014460E46A84700232074A37496B3E3746375CE
:205DC0000820A847002701232376A07567740620A847A076FFF77CFDE0830920A84701289A
:205DE0000CBF3B4603236376FFF772FDA0830A20A84701281AD066B90323E375637E022BF9
:205E00000CD0E37DA3F10203B3FA83F35B092375F8BD0223E375637E022BF2D101232375CF
:205E2000F8BD0720A8476675E074C9E7E775E5E730B591B00546FFF74BFD4FF6FF74A04247
:205E40003AD040220021684611F0A5FA06F028FC6A4601461A48FFF7A7FF06F021FC18B37A
:205E6000ADF800400C2006F013FC014602A800F097FA06F043FB0E9006F054FB034668468C
:205E80000F93FFF7EFFD044615B9204611B030BD06F0E8FA80B106F041FB01466846FFF72C
:205EA0002DFE204611B030BD0D2006F0F1FB0146684600F075FAD5E74FF0FF34E5E700BF87
:205EC00075C600000120FFF7B3BF00BF0020FFF7AFBF00BF0649074A074B9B1A03DD043B36
:205EE000C858D050FBDC0BF09BFAFCF711F800009C8B0100080000203C040020FEE7FEE785
:205F0000FEE7FEE7FEE7FEE7FEE7FEE7FEE7FEE700F01F030121C0F34710994000F066B834
:205F200008B503F075FE00B108BDBDE8084003F025BE00BF30B583B01446022301F01F019E
:205F400000228DF8063014F00C0341EA4015ADF8042006D0042B25D0082B27D00C2B02D1DA
:205F600003238DF8043014F0030304D0022B15D0012B02D103238DF805300E4A01A9284603
:205F800003F050FE2306284603D403F049FF03B030BD012103F0D8FE03B030BD01238DF843
:205FA0000530EAE701238DF80430DCE702238DF80430D8E7115F000001F01F0141EA4010A2
:205FC0001F28CABF054B4FF0A04300F01F00D3F8101521FA00F000F001007047000300507A
:205FE0000146014800F0EAB9E006002070B50C4B1C689CB105460E4601E0246874B1237A5D
:20600000AB42FAD1E36816EA0301F6D063682846002BF2D098472468002CF0D170BD00BF49
:20602000E0060020024B00221A60FFF779BF00BFE0060020EFF3108072B6704780F3108822
:20604000704700BF70B41A4A1A4D0023012440FA03F1C90712D59178B9B11178567801F0F3
:206060001F0141EA46111F29C6BF01F01F012E464FF0A04604FA01F1C6F80C150133042BD5
:2060800002F10302E3D170BC70471178567801F01F0141EA46111F29C6BF01F01F012E4635
:2060A0004FF0A04604FA01F1C6F80815E6E700BFF87D01000003005070B41A4A1A4D002389
:2060C000012440FA03F1C90712D59178B9B11178567801F01F0141EA46111F29C6BF01F09B
:2060E0001F012E464FF0A04604FA01F1C6F808150133042B02F10302E3D170BC70471178A1
:20610000567801F01F0141EA46111F29C6BF01F01F012E464FF0A04604FA01F1C6F80C15D8
:20612000E6E700BFF87D0100000300500E4A30B40E4D02F10C0403201378517803F01F03E4
:2061400043EA41131F2BC6BF03F01F0329464FF0A04103F5E0730332944241F82300EBD1DD
:2061600030BC0F20FFF7A8BFF87D01000003005010B50948FFF706FA084802F095FD50B1FD
:20618000064C01460B7A5B080B72204602F058FD01460028F6D110BD0C2C0020BC0000201D
:2061A0000146014802F0AEBDBC00002080B110B50446FEF7C9FD2368C01AB0F5963F05D265
:2061C000207A032894BF0020012010BD002010BD0020704770B50546144689B1022907D0CF
:2061E00006290CD10146BDE870402A4802F08ABD0146284802F086FD0646002832D170BD7C
:206200000146244802F07EFD0646002835D0FEF79BFD337A30602344102BA8BF102333723A
:20622000FEF792FD3368C01AE401B0F5963FA4B208D2337A042BB38834BF19220A222BB981
:20624000B48070BDB3881922002BF9D002FB04F41149C2F1640203FB0242A1FB023252099E
:20626000B28070BDFEF770FD337A30602344102BA8BF102333720C34D2E733460548294611
:20628000082202F09FFD06460028B8D047F6FF73C380BCE7BC0000201F85EB5138B50546C1
:2062A000042006F0E7F929460446214824B202F029FD38B3B0F9063047F6FF7293422CD08B
:2062C00004EB840462005A251A4C818813FB052384FB0324DB17C3EB641424B2C48081B9AF
:2062E00004F15A0212B222EAE2721E2A124BA8BF1E22D201A3FB0232120902F5807292B2F0
:20630000828038BD034629460948082202F05AFD0028F6D047F6FF73C3808388C480002BB0
:20632000EFD147F6FF739C42DAD14FF48072E7E7BC0000201F85EB518988888838B5094847
:2063400002F0B2FC60B1074D04462146284602F0A7FD2146284602F073FC04460028F4D116
:2063600038BD00BFBC00002000B5002183B0084802F044FC074B084A1B68009307480023D6
:206380004FF4E131FFF7D8F803B05DF804FB00BFBC0000203C2D0020716100000C2C00208D
:2063A0000B684A6842600360704700BF08B5082210F0BBFFB0FA80F0400908BD0368DBB17D
:2063C00010B4002400E0134699420FD01A681C46002AF8D100230B600368CBB11A461B68B3
:2063E000002BFBD111605DF8044B70470A686CB1226000221A60EDE700230B6003684BB164
:206400001A461B68002BFBD1116070470260F0E70160E8E70160704730B405684DB12B4639
:20642000002400E01346994207D01A681C46002AF8D10D6030BC016070470A683CB1226024
:2064400000221A6005680D6030BC016070470260F6E700BF03689BB110B4002400E01346EC
:2064600099421A6805D01C46002AF8D15DF8044B704734B1226000221A605DF8044B7047DC
:2064800070470260F7E700BF03682BB100201B680130002BFBD170471846704700B58BB078
:2064A0000246282168460EF06DF96946024806F04BF90BB05DF804FB847F0100F0B170B52D
:2064C0000024104E054654B1E3070DD5295D304606F03AF9072C10D00134002CF4D129781F
:2064E000304606F031F9F7E72E2006F091FA295D304606F029F9072CEED170BD024806F0E6
:2065000023B900BFE07F0100887F010008B506F0F9FA014B187008BDC72B0020034B197848
:2065200006204A1C1A7006F09FB800BFC72B0020F8B5FEF709FC104E0746344600250C200A
:2065400006F0A6F82146FFF731FF103420B90135102DF4D10020F8BD062006EB051506F0C9
:2065600089F82B7B8342F5D1A868381AB0F5206F8CBF00200120F8BDA4070020F8B5174EB5
:206580000024374635460C2006F082F82946FFF70DFF1035F8B90134102CF4D10F2407EB81
:2065A0000414254654F8100D6168A268E368A6420FC5F6D1062006F05DF83873FEF7C4FB7E
:2065C0000346BB600C2006F063F8BDE8F84001460248FFF7E5BE002CE1D1EBE7A407002058
:2065E00010B5044642884068002110F0D4FE23886288A06802FB03F2BDE81040002110F082
:20660000CABE00BF30B44588ADB14368002202E00132AA420CD0194601330C78002CF7D16F
:2066200001230B700588806802FB050030BC7047002030BC70472846F8E700BF30B4448822
:20664000826854B18A420CD00588002301E0914208D00133A3422A44F9D14FF0FF3030BCBC
:20666000704700234268D15C0029F6D00020D05430BC704783688B4208D84288008800FBAE
:20668000023081422CBF00200120704700207047418849B143680020194413F8012B02B96E
:2066A00001308B42F9D17047084670472DE9F041058896B004465DB1FD2D31D1882935D002
:2066C000822936D0FD230120238016B0BDE8F081A64AA749A74806F037F8A74806F09AF9DD
:2066E000A64BA74AD87999795E7904909878039159780091CDE9010640211B78A1480AF050
:2067000093F8202300939F4A9F4BA049A04802F03FF9A04BA0481D704021FFF789F8D1E75A
:2067200000230380032016B0BDE8F0819A4B9A42C8D1984E3578002D55D0012D5ED0032DE9
:2067400009D0042D77D0052D00F0928092484021FFF76EF8B6E7914F3B78002B00F0A680AC
:206760008F4F3B78002B00F0B880DFF8988298F800C0BCF1000F00F0CB808A4D2B78002B58
:2067800000F04281884D2B78002B00F07581874D2B78002B00F09881854F3D78002D00F06C
:2067A000A881844D2B78002B00F0BE81824F3B78002B6AD1814A824D07CA85E807001946BA
:2067C0002A46734802F066F9684A69490546694805F0BAFF7B4806F01DF9012D64D00123DA
:2067E0003B703578ADE701200BF01EFE00284AD00BF020FD002846D0012333705B4A5C49CC
:206800005C4805F0A1FF704806F004F96F4B93E8030001230690ADF81C100D0C00935C4881
:206820008DF81E505A2340F25B7206A902F0F0F8022333708AE7664F022006F08FF93B682F
:20684000012B00F08280022B00F0F580032B00F00381042B00F027814F484FF48061FEF76F
:20686000E7FF06F077F93378042B3FF42BAF6DE73E4A58493F4805F067FF574806F0CAF82F
:206880000023337062E7357857E73949374A394805F05AFF514806F0BDF804233E48337098
:2068A0004FF48061FEF7C4FF35784AE74C4A4D4D07CA03C519462A803548A5F1080202F03D
:2068C000E9F82A4A2A4905462A4805F03DFF464806F0A0F8012D82D1E6E7444A414D07CAAB
:2068E00003C525F8022B110C2A46294802F80A19194602F0CFF81D4A1D4905461D4805F0E1
:2069000023FF3B4806F086F8012D7FF468AFCBE7384D344F0FCD0FC73A462B6842F81039A4
:20692000614663461A4802F0B5F8104A10490546104805F009FF304806F06CF8012DB3D030
:206940000123357888F80030FBE6084A0849094805F0FAFE294B18680FF0D0FF02460B4699
:20696000274805F0F1FE02233B6075E7987F0100307E0100387E0100A47F01002C2C00208E
:20698000CC7F0100A4080020B96B0000D0000020E4080020D02B002058100020CA2B002007
:2069A000CC2B0020C82B0020CB2B0020CD2B0020CE2B0020CF2B0020D12B00207881010036
:2069C0006811002084810100E87F010008800100E00000208C82010090820100B0810100D3
:2069E00010800100681000201C8001003C80010048800100688001007C8001004C100020E9
:206A0000D8810100C92B0020534A544911605448194602F03FF8534A53490746534805F023
:206A200093FE534805F0F6FF012F3FF43DAF01232B70357885E64B4A4B494C4805F084FEE6
:206A40004C4B18680FF05AFF02460B464A4805F07BFE03233B60FFE6424A4349434805F0F0
:206A600073FE464B18680FF049FF02460B46444805F06AFE3D60EFE64249374A03C9106011
:206A8000080C918090711946354802F003F8354A35490746354805F057FE3B4805F0BAFFC5
:206AA000012FC4D100E72F4A2F49304805F04CFE364B18680FF022FF02460B46344805F057
:206AC00043FE01233B60C7E63249334A03C9106091802348194601F0DDFF224A2249074609
:206AE000224805F031FE2D4805F094FF012F9ED1DAE62B4BDFF8BCC00FCBACE807006246C6
:206B0000294602F80C3916482B4601F0C3FF154A15490546154805F017FE224805F07AFFFE
:206B2000012D7FF45CAEBFE61F4B204A196811800023090C91700A48194601F0ABFF094A47
:206B400009490746094805F0FFFD194805F062FF012F7FF46CAFA7E66810002066616E0085
:206B6000E4080020987F0100307E0100387E0100A8800100501000200482010054100020D7
:206B800034820100C4800100CC800100A81100205C820100E8800100A8100020F080010042
:206BA0001481010024810100508101002811002054810100E810002070B51546052900F2E0
:206BC000C380DFE801F00D19662A3403644A6549654805F0B9FDBDE87040644805F01ABF4A
:206BE0005F4A6049604805F0AFFD614805F012FF604B03221A7070BD594A5A495A4805F0E7
:206C0000A3FD29785C4805F09FFD5A4B5B4805221A70BDE8704005F0EDBE514A5149524841
:206C200005F092FDBDE87040554805F0F3BE141D5449966C204610F0C3FB0028DBD05249D6
:206C4000204610F0BDFB0028D5D05049204610F0B7FB0028CFD02B79662B24D04C492046AD
:206C600010F0AEFB0028C6D04A49204610F0A8FB18BB30463A2110F096FB0028BBD00130F8
:206C800010F050FB51EC100B10F04AF9424B186070BD334A3349344805F056FDBDE87040CA
:206CA0003E4805F0B7BE6B79612BD7D1AB796E2BD4D1EB79002BD1D170BD3949204610F024
:206CC0007FFB78B930463A2110F06DFB002892D0013010F027FB51EC100B10F021F9314B05
:206CE000186070BD2B79702B17D02F49204610F067FB00287FF47FAF30463A2110F053FBA1
:206D000000283FF478AF013010F00CFB51EC100B10F006F9254B186070BD6278482AE4D14C
:206D2000A378002BE1D130463A2110F03CFB00283FF461AF013010F0F5FA51EC100B10F070
:206D4000EFF81B4B186070BD0C46054A0549064805F0FAFC21461748BDE8704005F0F4BC59
:206D6000987F0100307E0100387E010058830100B0820100D02B0020D4820100D000002024
:206D800024830100108001003C80010068800100C4800100E88001004C100020F482010073
:206DA000148101005010002078810100A8110020541000207083010010B5436E04469847D3
:206DC000034BE06E1978BDE81040002205F0E4BDFF370020F0B501230025062285B00446EE
:206DE00080F86020A0F86830A0F89C5280F8385029464FF4087200F5956010F0CCFA0F4FAB
:206E00000F4B84F8745204F2347604F1740203934FF400730092214604F2A622CDE90137DA
:206E200030460AF06FFDB4F83027304604F5E46105B0BDE8F0400AF09FBD00BFD1850000CA
:206E4000A56F000070B500F174030446002503672946242204F2347680F86A5000F51E70AE
:206E600010F099FA30460AF0CFFD30460AF0D8FD30462946342210F08EFA042384F8603008
:206E800070BD00BF08B5026F00F51D739A4205D01170036F01330367002008BD00F17401C6
:206EA0008A4209D0002380F87432521A00F234700AF08CFD012008BD012380F874321846E1
:206EC00008BD00BF70B50446D0F8A032006F154604F51D76321AEE1A964228BF1646B6B2F8
:206EE0003246194410F02FFAD4F8A002226F304432448542C4F8A002226713D004F17401B0
:206F00008A420BD00023521A84F8743204F234700AF05CFDD4F8A002281A70BD012384F8AF
:206F20007432F9E70020C4F8A00270BD10B50446042100F5D962FFF73FFF94F81637B4F803
:206F40001A17012B04BF002384F8163709B1002010BD04F595604FF4087210F01CFA00209D
:206F600010BD00BF90F83830024623B90B4B0C48197805F011BD10B5022300F2347480F877
:206F8000603020460AF040FD20460AF049FD20463422BDE81040002110F0FDB9D82B002073
:206FA000E400002010B582B0032A8DF807200C460ED8F2B91D4B1E4819780722012384F8F2
:206FC000602084F87432224605F0E6FC02B010BD042AFBD1B1F856372BB9012201F17403B1
:206FE00081F874220B6704F11800FEF7EDFA02B010BD104B0E481978224605F0CDFC042319
:2070000084F8603004F11800FEF700FB0DF1070201212046FFF7D0FE2046FFF713FF637DC6
:20702000012BD3D12046FFF7D5FECFE7D52B0020E4000020D32B002008B505F021FC1B4A25
:207040001B4B1070187005F01BFC1A4B187005F017FC194B187005F013FC184B187005F0F1
:207060000FFC174B187005F00BFC164B187005F007FC154B187005F003FC144B187005F086
:20708000FFFB134A134B1070187005F0F9FB124B187005F0F5FB114B11480021196005F03C
:2070A000F7FB104B01221A7008BD00BFD62B0020DD2B0020D52B0020D72B0020DA2B0020A2
:2070C000DB2B0020D92B0020D82B0020FF370020D32B0020DC2B0020D42B0020B0110020A8
:2070E000E4000020D22B00202DE9F04782B003888DF8071040F296618B420546144600F03E
:20710000B78149D840F276618B4200F0208240F29F8040F284618B4240F01382A94B9DF82B
:2071200007101B788B4200F0D687A74B1B788B4240F26687A54B1B788B4240F00483DFF83C
:20714000B092D9F8006096F86030DFF880A2DFF89C8240F28E27032B01F06681B6F89C3247
:20716000BB4200F0698700F264814BB140F28D22934240F0FB8796F87432002B00F06981BE
:20718000E0213046FFF77EFE002800F05A8740F28D23A6F89C32EEE7B3F5D66F00F0628229
:2071A00040F2BD618B4240F09480864B9DF807101B788B4200F07F87834B1B788B4240F23B
:2071C0001287824B1B788B4240F0C782DFF82092D9F8004094F860307C4F4FF00008092B74
:2071E00040F0D980B4F89C32002B01F06380A3F26B339AB2252A00F2FB82252B00F2F88294
:20720000DFE813F0FE021903F602F6027C03A903E703F602F602CE03FA03F602F602F602DD
:20722000F602F602F602F602F602C302F602F602F602F602F602F602F602F602F602F60201
:20724000F602F602F602F602F602F602F602D000002B00F0A08040F25F62934240F0718171
:20726000584B9DF807101B788B4200F01887584B1B788B4200F0EF87564B1B788B4200F076
:207280007787554F3B788B4200F0C187534B1B788B4200F0A887524B1B788B4200F08F8774
:2072A000504B1B788B4200F076874F4B1B788B4271D194F87432DFF83891012BC9F80040AB
:2072C00069D194F86030092B65D10022A4F89C2282E740F2A3618B4240F03381394B9DF809
:2072E00007101B788B4200F0CA86374B1B788B4240F29386354B1B788B4240F03882DFF809
:20730000F090D9F8008098F86030304F374E092B41F06F80B8F89C32002B01F04380A3F52F
:2073200031739AB21F2A7ED81F2B7CD8DFE813F0BB02D5027B007B007B00CC03DD037B0027
:207340007B007B007B007B007B007B00ED031404FE037B007B007B007B007B0027047B0035
:207360007B007B007B007B007B007B007B0062000CF8036094F884320133DBB2042B84F839
:20738000843240F2B887002281212046FFF714FD0023A4F89C3240F25F632B80012002B096
:2073A000BDE8F087261D94F89932012B05D030460AF0BEFD002800F0108330460AF0B8FD1B
:2073C0000CE200BFD32B0020DD2B0020D42B0020D62B0020D52B0020D72B0020D82B002015
:2073E000DA2B0020DB2B0020D92B00203C2D0020AC11002008F1040A98F89932012B05D055
:2074000050460AF095FD002800F06B8250460AF08FFD4FF40872002108F595600FF0BBFFA0
:20742000002388F86A3000239DF80710A8F89C3236E740F29D22934240F0988696F874326D
:20744000002B40F08186301D0AF072FD002840F07B869AF80010D8F80000002205F09CFA9C
:20746000002800F07081D9F8006096F8603072E69E4B9DF807101B788B4200F0DC869C4B2E
:207480001B788B4240F2A2859A4B1B788B4240F05F81DFF86C92D9F8006096F86030DFF8E3
:2074A00054A2DFF8588240F2B137092B40F0BE87B6F89C32BB4215D028D82BB1B3F56C7F95
:2074C00039D196F8743293B1C0213046FFF7DAFC002800F010864FF46C73A6F89C32F0E7F4
:2074E000A6F89C7296F87432002B40F004869AF80010D8F80000002205F04EFA002800F0DE
:207500002781D9F8006096F86030CEE7B3F56F7F11D196F8B03423B9301D0AF009FD002884
:20752000E5D04FF40872002106F595600FF033FF002386F8383000239DF80710A6F89C3253
:20754000A9E6002303202B8002B0BDE8F087674B9DF807101B788B4200F08686644B1B78E1
:207560008B4240F22685634B1B788B4240F00481DFF88C91D9F80060B6F89C32DFF8848121
:207580000027002B00F05687A3F22B239AB2422A61D8422B5FD8DFE813F023033B035E00C8
:2075A0005E00550367037D0382033E042E045E045E005E005E005E005E005E005E004E04EC
:2075C0007204F3035E005E005E005E005E005E005E005E00ED04CE04E8045E008004BB04FF
:2075E00091045E005E005E005E005E005E005E005E00A404BD03D7035E005E005E005E004C
:20760000A303E00392035E005E005E005E005E005E005E005E005E005E005E005E004300A1
:2076200006F1040A96F89932012B05D050460AF07FFC002800F0F08250460AF079FC002829
:2076400040F053872C4F4FF40872002106F595600FF0A1FE00E0284F9DF807100023A6F875
:207660009C320FE6214B9DF807101B788B4200F00B861F4B1B788B4240F28E841D4B1B7845
:207680008B426FD1DFF87890D9F8006096F86030DFF86080194F092B40F07586B6F89C32B5
:2076A000002B00F049866FF4457213449AB2182A43D8182B41D8DFE813F0C700E0004000B9
:2076C0004000400035017801400040004000400040004000B001F801C601400040004000CA
:2076E000400040004000400040002700D32B0020DD2B0020D42B0020D72B00203C2D002013
:20770000AC110020B883010006F1040A96F89932012B05D050460AF00BFC002800F0B18011
:2077200050460AF005FC4FF40872002106F595600FF031FE002386F86A3000239DF80710B2
:20774000A6F89C32B1E540F284632B80012026E640F296632B80012021E640F2BD632B803B
:2077600001201CE64FF4D6632B80012017E640F2A3632B80012012E640F276632B800120CE
:207780000DE640F27E33A4F89C3294F87432002B00F02381B4F89422D4F890122046FFF78C
:2077A00091FB0028EDD1226F04F174018A4200F0B58684F87402521A04F234700AF006F974
:2077C000261D30464FF4A0610AF096FB94F89822002A00F0BA86012A00F0AA864FF4087279
:2077E000002104F595600FF0D6FD002384F86A300023A4F89C32CEE540F26B33A4F89C32F5
:2078000094F87432002B00F0E88094F878122046FFF738FB0028EFD1C4F8A00294F8842296
:2078200004F520712046FFF74DFB00286AD04FF45B73A4F89C3294F87432002BEED1CCE075
:2078400040F21533A6F89C3296F87432CBB196F878123046FFF716FB0028F1D1C6F8A002B3
:2078600096F8842206F520713046FFF72BFB00285CD040F21633A6F89C3296F87432002B1C
:20788000EED198F800103868002205F085F800283FF468AFD9F8006096F86030FBE64FF470
:2078A0003173A8F89C3298F87432D3B198F878124046FFF7E7FA0028F1D1C8F8A00298F8A9
:2078C000842208F520714046FFF7FCFA002800F0008140F2C523A8F89C3298F87432002B80
:2078E000EDD139783068002205F056F800283FF43EAFD9F8008098F8603008E594F8743244
:20790000002B6AD0B4F88C122046090AFFF7BAFA28B340F26F33A4F89C3294F87432002B1F
