:020000040000FA
:2010000000000420F57400001D7500001F7500002175000023750000257500000000000055
:201020000000000000000000000000002775000029750000000000002B7500002D75000034
:20104000DD9B0000DD910000F11601002F7500002F7500002F750000799800002F75000001
:2010600049ED00002F7500002F750000ED9C00002F750000ED9B00002F7500002F750000F5
:20108000F9BC00002F7500002F7500002F7500002F7500002F7500002F7500002F7500001F
:2010A0002F7500002F7500002F7500002F7500002F7500002F750000000000000000000058
:2010C0002F7500002F7500002F7500002F7500002F7500002F7500002F750000DDB4000003
:2010E0002F7500002F7500002F75000000000000000000002F750000000000002F750000BC
:201100000000000000000000000000000000000000000000000000000000000000000000CF
:201120000000000000000000000000000000000000000000000000000000000000000000AF
:2011400000000000000000000000000000000000000000000000000000000000000000008F
:2011600000000000000000000000000000000000000000000000000000000000000000006F
:2011800000000000000000000000000000000000000000000000000000000000000000004F
:2011A00000000000000000000000000000000000000000000000000000000000000000002F
:2011C00000000000000000000000000000000000000000000000000000000000000000000F
:2011E0000000000000000000000000000000000000000000000000000000000000000000EF
:2012000001F0FF01102A2BDB10F0070F08D010F8013B013A8B422DD010F0070F42B3F6D194
:20122000F0B441EA012141EA014122F007047FF000070023F0E80256083C85EA010586EA41
:20124000010685FA47F5A3FA87F586FA47F6A5FA87F68EB9EED1F0BC01F0FF0102F007023C
:2012600032B110F8013B013A83EA010313B1F8D10020704701387047002D06BF354603389F
:20128000073815F0010F07D1013015F4807F02BF013015F4C03F0130F0BC0138704700BF63
:2012A000D0B5038804463BB15C2B0DD188290FD082290DD00120D0BD80211D4805F0A8FC1E
:2012C0005C2323800120D0BD002303800320D0BD04F066F8E8B904F047F802460B4652EAED
:2012E000030116D010A7D7E90067D90141EA5261D0018F4208BF86420FD3002908BFB0F5C6
:201300007A7F0DD34FF47A72002313F037FA0146D3E708480BF060F8D2E74FF4F051CCE7DA
:201320000121CAE7AFF30080E733750000000000280E0020B800002010B5054C237833B95E
:20134000044B13B10448AFF300800123237010BD50090020000000009060010008B5034B13
:201360001BB103490348AFF3008008BD000000005409002090600100A3F5803A704700BFED
:20138000174B002B08BF134B9D46FFF7F5FF00218B460F461348144A121A13F0A1FB0E4BAA
:2013A000002B00D098470D4B002B00D098470020002104000D000D48002802D00C48AFF38A
:2013C000008012F093FA2000290004F0EFFE12F079FA00BF00000800000000000000000098
:2013E0000000042008040020A4320020000000000000000000B585B00346002101AA44F272
:201400000100CDE90111039300F004F805B05DF804FB00BF72B6094B1B68DB0700D500BE45
:20142000BFF34F8F0649074BCA6802F4E0621343CB60BFF34F8F00BFFDE700BFF0ED00E0E1
:2014400000ED00E00400FA050378052B02D0094B1B681847084BD3F88424D3F8803413F0C1
:20146000FF0FF4D1054BD2B2052A08BF1846014B1B6818476C09002000700240484E010065
:20148000014B02481B6818476C0900204C4E0100012803D0022809D020B17047054B06487F
:2014A0001B681847034B05481B681847014B04481B6818476C090020404E01003C4E0100A4
:2014C000444E01002DE9F04F87B0002504460F4690469946029500E001356268012356681B
:2014E0002146002202A8B0470028F5D18DF80600049065B3824683460AE09DF80630666889
:20150000023B7668B0479DF806309B445D451ED962680123566821460DF1060204A8B047BA
:2015200062680123566821460DF1070204A8B0479DF80730BB424FF00002214604A8DCD124
:20154000D04508D00AF1010A5FFA8AFAD5E7052007B0BDE8F08F109A9DF80630136089F896
:20156000003089F801706168023B4D6809F102022146A847002007B0BDE8F08FF0B505464F
:2015800083B03B4809F0D6FA044610B1204603B0F0BD384A3849394B14700C6048222146B3
:2015A00037481C6013F09CFA36482146482213F097FA002D54D095E80700334B83E80700EF
:2015C000002847D0002007F003FF08B1852844D12E4D2B7A002B49D0013BDBB205F10C0207
:2015E0004FF0030E6E68274FDFF894C01EFB032E05F109046378EBB1A278611C1144013B38
:2016000051FA83F1224408E003F00F0307EBC30391421D60306858600CD012F8013B180620
:20162000F2D503F00F030CEBC30391421D6030685860F2D103347445DCD10B238DF804303A
:201640001248336801A99847044600289ED009F0B3FA9BE70E4A1A60B4E7FFF7CBFEB7E73A
:20166000094B0B4A5D601D721A60ABE76E68E4E7491400001D2C0020080A00200C0A00209A
:2016800078090020C00900206C090020784E0100591A000010B509F0A9FB68B109F0AEFBD4
:2016A000044648B9064807F0A7FE034628B1FFF7A1FE2346184610BD0823184610BD00BF95
:2016C000384E010009F082BA0AF080B94FF0804303E0D3F83824D10707D5D3F8382492079B
:2016E000F7D5024B02481B68184770476C090020504E010000B5054B83B082221B688DF8D6
:20170000042001A8984703B05DF804FB6C0900202DE9F043057A83B0002D5ED005F1FF3EF8
:201720005FFA8EF300F10C024FF0030E00F10901334FDFF8D4C01EFB032E0C4666780022FC
:20174000964204EB020319D094F8028013F9089013F80830B9F1000F0BDB03F00F0307EB49
:20176000C3031B680132002BEAD0112003B0BDE8F08303F00F030CEBC303F2E70334A6454F
:20178000DCD100261E4FDFF880C0324602EB42020A445378EBB1002423460CE003F00F0316
:2017A00007EBC303186045682D685D6055780134E3B29D420CD99578134413F905E05B5D92
:2017C000BEF1000FEADA03F00F030CEBC303E9E7057A0136F2B29542D8D80A4A13681BB179
:2017E0001A681368002BFBD1106043680B228DF804201B6801A9984703B0BDE8F08300BF6E
:20180000C0090020080A002078090020024B1878003818BF012070471C2C0020030710B511
:20182000044604D52046BDE8104009F067BF09F07FFC204609F0BAFF2046BDE8104009F02B
:201840005DBF00BF0AF0A0B9014B1868704700BF080A0020F0B40E4B1F688FB13E7A96B123
:2018600000231C463A4602E0DCB2A6420BD9557A854203F1010302F10302F5D101B10C70AD
:201880003846F0BC70473B681F68002FE6D1F7E7080A0020436811461B68184700F00F0361
:2018A000082B0AD802064CBF054A064A02EBC303186810B143681B6818471020704700BF3A
:2018C00078090020C009002038B5094B1C6864B1054602E023681C683CB1636829461B68BE
:2018E000204698470628F5D038BD062038BD00BF080A002038B50D46044609F0EBFA18B17E
:20190000054B1B78022B01D0082038BD29462046BDE8384009F0EEBA1D2C002038B50D468D
:20192000044609F0D7FA18B1054B1B78022B01D0082038BD29462046BDE8384009F06CBBBA
:201940001D2C0020F8B543689B6805460C4616461BB19847062800D0F8BDEEB92B7AA3423B
:201960001CD9093504EB44042C44677897B133463A469A420BD9A378A2190136D05CFFF77E
:201980004DFFF3B2BB4205D262789A42F3D800231B78FFDE0020F8BD0720F8BD7378FFDEF5
:2019A00070B54368DB6805460C4603B198472B7AA3421AD9093504EB44042C4466789EB155
:2019C00000252B46324693420BD2A37862190135D05C0AF0D9F8EBB29E4205D9627893427A
:2019E000F3D300231B78FFDE70BD00235B78FFDE43681B6903B118471846704770B50A4BBD
:201A00001D687DB12E7A4EB100242146013400222846FFF797FFE1B2B142F7D32B681D6828
:201A2000002DEFD170BD00BF080A002070B5094B1D6875B12E7A46B10024214601342846AA
:201A4000FFF7AEFFE1B2B142F8D32B681D68002DF0D170BD080A002070B503780446852B93
:201A600000F2BF80DFE813F00002B201BE003A026602E300EA00BD00040117012A01BD00C5
:201A8000BD00BD00BD003D01BD00BD00BD00BD00BD00BD00BD00BD00BD00BD00BD00BD00F5
:201AA000BD00BD00BD00BD00BD00BD00BD00BD00BD00BD00BD00BD00BD00BD00BD00BD0056
:201AC000BD00BD00BD00BD00BD00BD00BD00BD00BD00BD00BD00BD00BD00BD00BD00BD0036
:201AE000BD00BD00BD00BD00BD00BD00BD00BD00BD00BD00BD00BD00BD00BD00BD00BD0016
:201B0000BD00BD00BD00BD00BD00BD00BD00BD00BD00BD00BD00BD00BD00BD00BD00BD00F5
:201B2000BD00BD00BD00BD00BD00BD00BD00BD00BD00BD00BD00BD00BD00BD00BD00BD00D5
:201B4000BD00BD00BD00BD00BD00BD00BD00BD00BD00BD00BD00BD00BD00BD00BD00BD00B5
:201B6000BD00BD00BD00BD005101860060011C02E301E3008C4B8D49D3E9000290478C4B3A
:201B80001C684CB1894D636820461B682946984723681C68002CF6D1864C63680BB10D2064
:201BA0009847FFF743FF01F075FB834B1B68002B00F0FD810120814D09F0E6F82A78931EAA
:201BC000DBB2062B00F215827D49CB5C13B107F0E5FB2A78022A40F00C8209F051F9012343
:201BE0002B7070BD754D2A78931EDBB2062B00F2CD817349CB5C13B107F0D0FB2A78022AD3
:201C000040F0C48109F03CF96A4B5B6803222A700BB102209847664B1D6845B16B682846C0
:201C20001B68214698472B681D68002DF6D15E4B2146D3E90002BDE87040104790F902309A
:201C40008278002BB4BF5F4B574B02F00F0203EBC203D3E90002214690470028C1D0A0781D
:201C60000207BED00307BCD4BDE8704009F032BA504B5B680BB1082098474D4B1D68002D8E
:201C8000AFD06B6828461B68214698472B681D68002DF6D1A5E7474B5B680BB1092098470A
:201CA000434B1D68002D9CD06B6828461B68214698472B681D68002DF6D192E73D4B5B689E
:201CC0000BB10A2098473A4B1D68002D89D06B6828461B68214698472B681D68002DF6D199
:201CE0007FE7344B5B680BB10F209847304B1D68002D3FF476AF6B6828461B6821469847E3
:201D00002B681D68002DF6D16BE72C4C2378062B00F04F8103F0FD03052B7FF462AF09F0C1
:201D2000B9F80223237070BD244DFFF77FFE09F041FE2A78931EDBB2062B31D82049CB5C47
:201D400013B107F02BFB2A78022A29D109F098F8174B1C6800232B704CB11B4E6368204616
:201D60001B683146984723681C68002CF6D10E4B1549D3E9000290470E4B5B680BB10E2036
:201D800098472B78023BDBB2062B3FF62AAF0C4AD35C002B3FF425AFBDE8704007F0FEBAFD
:201DA000082AD5D1D2E700BFC0090020544E0100080A00206C0900200C0A00201D2C0020E1
:201DC000304E010078090020584E01009C4DFFF72DFE01F055FA2A78931EDBB2062B00F2EF
:201DE000D9809849CB5C002B00F0D480022A03D0082A01D009F04EF8934B5B6802222A7073
:201E00000BB101209847914B2146D3E9000290478F4B1D68002D3FF4E4AE6B6828461B6819
:201E2000214698472B681D68002DF6D170BD844D2B78032B00F0C68008F0EAFF00283FF40F
:201E4000D0AE2A78931EDBB2062B40F2EB80814807F076FA2A78022A01D0082A01D109F08A
:201E60000FF806232B7070BD754B1B78032B00F0A580082B00F0A280734B5B680BB1002032
:201E80009847754B1D68002D3FF4ABAE6B6828461B68214698472B685D68002DF6D170BDE2
:201EA000674D2B78032B7FF49CAE09F0BFFD00283FF497AE2A78931EDBB2062B00F2BB804D
:201EC0006049CB5C13B107F069FA2A78022A40F0B28008F0D5FF04232B7070BD584D2A78E2
:201EE000082A5CD0931EDBB2062B00F286805549CB5C002B00F08180022A00F087800523F1
:201F00002B70514B5B680BB1032098474F4B2146D3E9000290474E4B1D68002D3FF461AEE6
:201F20006B6828461B68214698472B681D68002DF6D170BD444B5B680BB103209847434BC0
:201F40004649D3E900029047414B1C684CB1434D636820461B682946984723681C68002C83
:201F6000F6D1374D2B78062B1ED0082B0BD09A1ED2B2062A4DD833498A5C002A49D0022BE3
:201F800001D008F087FF02232B7070BD082A7FF43BAE37E62F4807F0D3F92A7826E702234C
:201FA0002B7008F081FFACE707232B7070BD207A01E608F06FFF0823237070BD2848FFF751
:201FC0004BFD59E709F032FD00283FF435AF2A78931EDBB2062B2BD81A49CB5C13B107F0B9
:201FE000DDF92A78022A23D108F04AFF04232B7022E7082A7FF4F3ADEFE5164807F0A0F936
:202000002B78022B02D0082B7FF479AF08F038FF75E7104807F094F92B78022BB3D0082B63
:20202000B1D0AEE70749CB5C002B7FF414AF0EE7082ADBD1D8E7082A7FF44DAF49E700BF90
:202040001D2C0020304E01006C090020C0090020080A0020080000200C0A0020604E0100DB
:202060005C4E01004360CA699A4205D38A6902600B67CB610020704701F1280202608B67F1
:2020800000207047F0B504680E7A002C00F07284A4F212347C2C00F2C1827C2C00F2BE822B
:2020A000DFE814F074020003DE02CF02C7022A0307032303BC02BC02BC02BC02BC02BC0291
:2020C0006702D702BC02BC02BC02BC02CC010F03E602BC02BC02BC02F401EE038C03BC0292
:2020E000BC02BC02BC02FF00CB034803BC02BC02BC02BC02BC02BC026402BC02BC02BC027A
:20210000BC0219019B039303AC035703BC02BC02C3038403B40339035F03BC02BC024103CC
:20212000DB015003ED00BC02BC023203DB00F503BD00BC03BC02BC02BC02BC02BC02BC020F
:20214000BC02BC02BC02BC02BC02BC02BC02BC02BC02BC02BC02BC02BC02C900D303BC027C
:20216000BC02BC026703BC02BC02BC02BC02AC00BC02BC02BC02BC02AC00BC02BC02BC02F7
:20218000BC02BC02BC027D00C002BC02BC02BC02BC02B800BC02BC02BC02BC02B800012441
:2021A0000025002A00F0CD8307795755A3424FF00005057140F27C83171901343D70B04D85
:2021C0000F7D2D682D78AF4200F0B0838F7DAF4209D10025A342057140F24D85254601342A
:2021E0000AB107795755DFF8A0C2A64F9CF800503F780135EDB28CF800507BE101250024E0
:202200000AB1077917554024AB42047140F289836C1CC6E701240025002AE2D1E3E70124C8
:202220000025002A40F031848D7D0571A34240F262830134FFE001250024002A00F03D83B6
:2022400007791755AB424FF00504047140F27E83274602EB050C6C1CFDE201250024002A6F
:2022600040F011840624AB42047140F23F8301350C7D0471AB4240F291836C1CD4E7012549
:202280000024002A40F003840524AB42047140F228836C1C2425A342057140F27583651CFA
:2022A000E0E701240025002A00F0FA83077957554FF0000CA34280F804C040F29084651C17
:2022C0000027AB4202F804C0077140F2F383541901352770F3E001250024002A00F0EF8329
:2022E00007791755AB424FF02404047140F2C183274605F1010C002463455755047140F224
:20230000A98325460CF101071024BB4202F80C50047140F29083254607F1010C01246345A3
:20232000D555047140F2788325460CEB04070524BB4202F80C50047140F25D83254607F1FE
:20234000010C24246345D555047140F24A8325460CF101070124BB4202F80C50047140F253
:202360003683254607EB040C03246345D555047140F228830CF1010702F80C40BB4291F81B
:2023800016C080F804C040F218837C1C0425A34202F807C0057140F20B8302EB040C2F464F
:2023A00001342425A3428CF80070057140F2FB822F46651C1755AB424FF00204047140F266
:2023C0009F82274602EB050C6C1C0225A3428CF80070057140F2DD822F46651C1755AB4293
:2023E0004FF00504047140F27C82274602EB050C6C1C2425A3428CF80070057140F2C482ED
:202400002F46651C1755AB424FF00604047140F26D82571901353C700F7D0771AB4240F219
:20242000BD826C1C5755A3428D7D057140F26382171901343D70124D2D6851E0012700242A
:20244000002A00F04082057915559F424FF00004047180F0F5827D1C39E101250024002A11
:2024600040F017830224AB42047140F249826C1C0225A342057140F28C82651C04E700BF98
:20248000100A00201E2C0020202C002001240025002A00F09883077957559C424FF002055D
:2024A000057180F05883671C1555BB424C7E047140F2E48202EB070C7D1C8CF80040002419
:2024C000AB42047140F221826C1C0AB107795755C64D91F814C02D682F78BC4500F01A821D
:2024E000DFF810E3DFF810C36F788EF8007000258CF80050BD423FD3BD4F3D780135EDB2EB
:202500003D70AE4240F2CA810925A342057140F25583651C002A00F0128307791755AB4205
:202520004FF00404047140F2B682274602EB050C6C1C8CF800700F7AAD4D2D78AF4240F243
:20254000AC8305EB450501F10907DFF8A0C217F805E080F804E03D449C42CCF8005080F0A4
:202560007E82671C002A7FF46EAFACE101240025ABE701250024CDE70725A342057140F2FE
:202580009281651C002A7FF45BAE96E1002A00F0EB8204791470012B4FF00B04047140F2E1
:2025A000238302250127D455AB420F7D077140F25B8205F1010C022463455755047140F2D9
:2025C000448225460CF101070224BB4202F80C50047140F22B82254607F1010C02246345BA
:2025E000D555047140F213820CF1010702F80C40BB4291F819C080F804C040F2F7817C1C4D
:202600000025A34202F807C0057140F2E581171901343D70764F00253D7072E70023036059
:202620001846F0BD002A00F0F282057917460124C4E5002A00F0F28205794FF0010C0027D9
:20264000CCE7002A00F0EC82057901274FF0000CBAE7002A00F0FF8207799446012468E744
:20266000002A00F0D78207794FF0010C0025A2E75E4C002A00F0E682077924689446012535
:202680008CF8007024780F7DA74200F0B9818F7DA7427FF414AF0A249D42047180F0F58277
:2026A0006C1C00E6002A00F0D28204790125002779E7002A00F0B08290F804C00124002730
:2026C0009EE7002A00F0C182047901250027DFF81CC1D455DCF80040AB426778077140F2E7
:2026E000A08102EB050C0135CAE7002A00F0B1820579174601248CE7002A00F08482047977
:2027000001274FF0000C71E7002A00F0A7820779944601246DE6002A00F08E82047901270A
:202720004FF0000C28E6002A00F0A18207799446012436E6002A00F000821446077927705B
:202740000125BCE6002A00F08E820779944601243BE6002A00F07282057901274FF0000CE8
:20276000E5E5002A00F0608290F804C0012400270CE61E4C0125276800241AB190F804C0AF
:2027800002F804C03C780F7DA74200F0E9808F7DA7427FF438AD0224AB42047140F2708200
:2027A0002C460135002A7FF42CAD2CE5002A00F04782057901274FF0000CCBE5002A00F04C
:2027C000BC8104799446012577E6002A00F01682057901274FF0000C96E5002A00F04582E3
:2027E00007794FF0010C002585E500BF100A00201F2C00201E2C0020202C0020002A00F02A
:20280000308205794FF0010C002787E5002A00F00F8205794FF0010C0027A5E5002A00F069
:20282000F48105791746012404E6002A00F0218205794FF0010C002783E5002A00F0F68192
:2028400090F804C0012500243AE5002A00F0EA810779944601248CF80070C14FC14D3F6806
:202860002D7897F801C0AC4540F2148297F802C03D44A34215F80C5005716CD9651C7CE7EB
:20288000002A00F0D7810579012700240CE6002A00F0B681047917460125BCE540F299331A
:2028A00003600120F0BD40F26D3303600120F0BD4FF4617303600120F0BD0524AB42047111
:2028C00044D96C1CC9E79F42027180F0B9807D1CA34C2468AB426778077140F2A2800135C4
:2028E000D0E640F2553303600120F0BD40F2573303600120F0BD40F2593303600120F0BD5B
:2029000040F2513303600120F0BD4FF44F7303600120F0BD0525A342057140F21781651CCA
:20292000DBE440F2833303600120F0BD0D6AA3422D7805713FF652AC40F2893303600120A3
:20294000F0BDA3420271B3D9013438E440F26E3303600120F0BD40F2723303600120F0BD89
:202960000324AB4204713FF61BAF40F2773303600120F0BD08240471002B7FF407AE40F29C
:20298000123303600120F0BD40F2563303600120F0BD40F2523303600120F0BD4FF45673E1
:2029A00003600120F0BD4FF4547303600120F0BD40F24F3303600120F0BD4FF4537303605A
:2029C0000120F0BD40F24B3303600120F0BD40F24A3303600120F0BD40F219330360012066
:2029E000F0BD40F2493303600120F0BD4FF4467303600120F0BD4FF4527303600120F0BDE5
:202A000002249D42047180F0F4806C1C40E540F2173303600120F0BD40F2453303600120D0
:202A2000F0BD4FF44A7303600120F0BD40F2163303600120F0BD4FF4517303600120F0BDD4
:202A400040F2273303600120F0BD40F2153303600120F0BD40F2433303600120F0BD40F203
:202A6000263303600120F0BD4FF4457303600120F0BD40F2423303600120F0BD40F22E3335
:202A800003600120F0BD0779BCE40779CAE40779A4E407798EE440F2213303600120F0BD06
:202AA000A342027140F29B80013400259C420571C0F0938040F2353303600120F0BD2424ED
:202AC000AB420471D5D96C1C00259C420571C1D2013410259C420571ADD2013401259C42DC
:202AE000057199D22C4405259C42057183D2013424259C420571BFF474AF013401259C42D1
:202B00000571BFF464AF2C4403259C420571BFF459AF01348D7D05719C42BFF44EAF01345A
:202B20000425A34205717FF643AF01342425A34205717FF638AF651C94E40125BFE404248B
:202B4000AB420471A7D90F7A6C1CF5E440F2413303600120F0BD40F22D3303600120F0BD0F
:202B6000100A0020202C00200B24012B04713BD902240D7D05719C42BFF476AF0134022593
:202B8000A34205717FF661AF013402259C420571BFF44CAF01340225A34205717FF637AFE5
:202BA00001344D7E05719C42BFF420AF013400259C420571BFF410AF01342BE54FF44873DC
:202BC00003600120F0BD02259C420571C3D201344D7E05719C42BFF451AF651C6FE44FF496
:202BE0004D7303600120F0BD40F2133303600120F0BD4FF44B7303600120F0BD012468E795
:202C00000125FFF735BB0124CBE7012413E40124FFF7D5BA0124B2E70124C8E70124BAE7B3
:202C20000124B2E7012418E6012479E701243CE7012469E70124CBE701246BE7012452E7C5
:202C400001245BE7246801251CE5012540E601248FE70124DEE4374601246DE40124FFF77E
:202C600019BB01243AE7012402E401242CE701245CE701243CE740F28E3303600120F0BD23
:202C80004FF45F7303600120F0BD40F2333303600120F0BD00231B78FFDE024A00231360B0
:202CA0001B78FFDE100A002070B90B681A7B202A01D0062070471A4652F80E1F9961918857
:202CC00092799A7799837047032070474360CA699A4210D38A6910B40260C8690C6FC01AF7
:202CE0001C441A44C86100380C6718BF01205DF8044B8A61704701F12802026000208B6774
:202D0000704700BF2DE9F0470B7888B00D4606460E2B14D8DFE803F008180808130D28132C
:202D200013181308080808000024204608B0BDE8F0874B78DA0930D15B09012B4CD006245A
:202D4000204608B0BDE8F0870368002403F134022046C3E91E44C3E920445A671C845C62DD
:202D6000DC6208B0BDE8F087027A8B78002A00F06581817A0930002900F05E81F17A415C8E
:202D80009942D1D01B061ED4EF7807F0FD03012BCAD0002F65D00324C7E713F0600FC3F31F
:202DA000411200F09180012AC9D18B78212BC6D1B1F80720072AC2D10168681C183100F05A
:202DC00073FA0446B1E7EC78002C00F09D80032C14BF03240024A8E78B780768202B00F07E
:202DE0009B80222BABD1B1F80730002BA7D1B1F8035097F820303D8405F0010203F00103E1
:202E00009342154690D0C3691BB1C2F10301C9B29847002D88D1337A012B40F20B81737B0E
:202E200006F10C04002B00F00381B37BE05C08F027FE337A012B40F2FD80737B012B40F291
:202E4000F780B37B23442C46587808F019FE07F13403C7E91E55C7E920557D62FD627B677E
:202E600063E73568012A05F10C0140F2DF80727B012A06F10C0340F2D7800691B27B704988
:202E800005911344AC6A93F80180002C60D1EA6FEB6AAC67C5E91F42002B00F0B480296B13
:202EA0001846002205F1240383E803004046EA6205A9FEF733FD0446F369002B3FF435AF7A
:202EC00030460021984730E703F01F03012B7FF436AF8C78062C7FF432AF05A8039200F010
:202EE000D5FC03AA00920746EA78297930463B46FEF7E8FA05283FF418AF039A3946681CDC
:202F000000F0D2F9044610E7F369002B3FF40CAF30460121984708E7B1F80720072A7FF466
:202F20000EAF3B73B1F80730DBB27B7300200E37CDE90573079000F08BFF002005A9FEF764
:202F4000D9FC0446002867D0002000F089FFECE6D5F88490686A4C4528BF4C4605F1340A98
:202F60002246514611F094FDE86FEA6AEF67A9EB04030AEB04010444C5E91D13C5F8804087
:202F8000002A43D005F12C0797E8030005F12404002284E80300EA62002B3BD091461BE046
:202FA000696F686A11F074FDD5E91D32A96AC5F880100B44521AC5E91D32F36913B100218F
:202FC00030469847EB6A13B397E8030084E80300AB6FC5F82C90EBB1AA6A9342E0D2696FEE
:202FE000686A1A4611F054FDD5E90932A96FE967521A0B44C5E9093253B1404605A9FEF71B
:203000008DFC044658E700236B6255E700236B62002451E76B6AEFE70A4B049603A903934A
:2030200000F020FC04468FE73B78FFDE7B78FFDE2B78FFDE6B78FFDE0B78FFDE5378FFDE1C
:20304000CD2C0000A92C000010B503681C8CE40784B015D50B46017A012916D9417B00F12F
:203060000C0481B1817B605C91060CBF0124002401A9CDE901320394FEF73CFC04B010BDD3
:20308000082004B010BD0B78FFDE00235B78FFDE0368D3F880007047F0B50468238CDB0745
:2030A00083B022D50546002016460F4600F0D0FEA26F42B9636AE3B11124002000F0D0FE8C
:2030C000204603B0F0BD964228BF1646616F3246384611F0DDFCD4E91D239B1B3244C4E999
:2030E0001D23C4F880600024E7E70824204603B0F0BDC4E909762A7A012A12D9697B01291C
:2031000005F10C020FD9AB7B0849009113440C34587801946946FEF701FC041E08BF92247F
:20312000CBE75B78FFDE1B78FFDE00BF65200000002070472DE9F04F4B6885B0CDE90002AD
:203140000C46002B71D007F0C1FFE568019B9D4228BF1D468146002D7CD04FF0000A5646C3
:20316000D3464FF00108D4E90113AB421F4628BF2F46E9B13A4609EB060011F089FCD4E918
:203180000223D21BDB1BC4E90223C4F804B0ED1B3E442AB3002B08BF4FF00008002DE2D165
:2031A000009BC3F800905E60404605B0BDE8F08FABB120463B4650F8101B4A68D2F804A036
:2031C00009EB0602D047D4E90223D21BDB1BC4E90223ED1B3E445AB14FF0010ADAE7E3685A
:2031E000BAF1000F04D15BB99846002DBBD1D7E722681268126822604FF0010A002BF3D09F
:203200002168F1B1CDF808B003E0A36821680133A3604B6800225F6802A80123B8470028C7
:20322000F3D12061002D9ED1BAE70B681B681B68002B88D18B68002B85D1036043609846B7
:20324000B2E76160002EABD0019BB34288BF4FF00008A5E72E464FF00108A1E7054B0528FF
:20326000187004D0044A137823F0020313700348FEF7F2BB212C0020222C0020884E0100DF
:2032800008B50020FEF7CAFABDE808408020FEF7C5BA00BF08B50020FEF7D4FABDE808404B
:2032A0008020FEF7CFBA00BF70B5C38893421E4628BF1646934284B00D4612D800240020BB
:2032C0000394CDE9015600F0C3FD01A98020FEF711FB044688B1002000F0C2FD204604B0E3
:2032E00070BD8020144607F0E5FDB4FBF0F202FB1044B4FA84F46409E1E707F0C1FF802832
:203300000BD1094A094B92E8030083E80300002000F0A6FD204604B070BD002000F0A0FD98
:203320001024204604B070BDC04E0100380A00202DE9F04F0B780E2B89B018D8F3B1013B87
:203340000D2B1BD8DFE803F01F0E281A354C1A1A1A1A0E666F07B24B1B78012B02D0012097
:20336000FFF77CFF0024204609B0BDE8F08F852B04D1AB4B1B78032B00F0408106242046F8
:2033800009B0BDE8F08FA64B1B78032BF6D00320FFF764FF0624E6E7A24805F055FF00280A
:2033A000E0D0A14B01221A60BFF36F8FBFF34F8FD8E705230DF115008DF8143007F0C8FE14
:2033C0009DF81530994E002203F01F043260032C00F2B980DFE814F0E800B90099008D0076
:2033E000C87803280D46C9D0904E3368002B00F003810022716832609847044600287ED131
:203400003368002B00F00581AB78002BAAD107F0C1FEA8E7824B1B78002BA3D00020FFF74E
:203420001DFF00249FE74FF08043D3F8383413F0010F7B4B1B7806D0022B93D00220FFF7A3
:203440000DFF00248FE7012B89D18BE7BDF81B30002B00F0D880092B28BF09239946FEF740
:20346000F3F90546002800F0DB81BB464FF0090ACDF80CB04FF0000801E008F101086A68D1
:20348000012357682946002203A8B8470028F4D12A682B7A15681C44C244E4B2002DE7D18C
:2034A000634D644928464A4611F0F2FA2C71A5F802A0FEF7ABF918B1EB7943F02003EB7170
:2034C000FEF7C2F95C4BBDF81B2018600020C3E90159DA6000F0BCFC58498020FEF71EFAD7
:2034E0000446002800F09F81002000F0B9FC062C05D105A8FEF7E8F90446002C73D007F04A
:20350000B5FE204609B0BDE8F08F9DF81900020707D005A9FEF7C2F906280446EDD19DF8FE
:20352000153013F0600F0ED19DF816303C4A9DF819401278012B00F0B980032B00F0A68083
:20354000002B00F0C6800624D9E79DF8190003A9FEF780F90546002859D09DF80C1005AA5C
:20356000FEF798F906280446C7D19DF8152012F0600FC4D12A4B9DF80C101B78D20940F021
:2035800014819DF816200B2AB9D1052B40F0B280BDF81730FF2B00F2FC809DF817202846AC
:2035A000FEF7D0F90446A8E713F0600FC3F341179FD1DB0948D19DF81630032B00F09C8072
:2035C000092B00F0A880012B93D1BDF81730012B8FD1FEF71BF9002800F0D980184A137820
:2035E00023F00203137033686BB107F049FE044600287FF4B7AE0AE70E2480E70420FFF74D
:203600002DFE0624AFE607F027FE0024ABE6102475E70C4B1B68082B33D007F01DFEA2E6B5
:20362000212C0020400A00205C700240380A0020440A00208C4E0100200A0020C84E010099
:20364000222C0020300100109DF81620062A00F08780082A73D0002A7FF44BAF7B497C4B32
:2036600009781A80890744BF02221A7078490DF115000222FFF718FE0446062C7FF43DAF0F
:2036800037E7744B1B68002BC7D16BE625073FF55AAFBDF81730002B7FF455AF052A01D0AF
:2036A000200727D1204607F015FD9CE721073FF54AAFBDF81730002B7FF445AF052A01D016
:2036C000230717D1204607F033FD204608F06EF889E7052A01D027070CD1204607F006FDAC
:2036E0005B49034602220DF115000B80FFF7DCFD044602E7082402E7BDF81730012B7FF469
:20370000F8AEFEF783F8002841D0504A137843F00203137067E7504C2378043B012BE9D8C9
:203720009DF81730BBB3012B33D1FEF767F92378052B3FF458AF0520FFF790FD53E7464A43
:203740001278052A47D0042A7FF4D3AE404B1F703F490DF115000122FFF7A6FD04468CE749
:203760009DF81830022B3FF471AE032B36D0012B7FF4BFAEBDF81B30002B3FF444AF3749DC
:203780000DF115001222FFF78FFD044675E70F24B5E60724B3E6FEF749F92378042B3FF4F4
:2037A00022AF0420FFF75AFD1DE79DF816705FB30A2F7FF4A4AE052B9CD128460192FEF705
:2037C00017F92349019A03460B700DF11500FFF76BFD044691E61E4A1370B9E7BDF81B3051
:2037E000002B3FF410AFBDF819109DF8170000F01DFB014600283FF47CAE0A780DF11500B9
:20380000FFF752FD044638E7052B7FF473AF10490DF1150002220F80FFF746FD04466CE641
:203820004FF0090A3CE607F02BFD802808D10C4B93E8030086E80300204600F011FBD2E614
:20384000204600F00DFB102459E600BF222C0020440A002034010010212C0020AC4E01004F
:20386000C04E010038B505460C4607F009FDA84207D194E80300044A82E803000023184635
:2038800038BD1023184638BD380A002008B1402303600148704700BF440A0020F0B40D7A74
:2038A0000DB101F109050468002C59D06FF4AB763444142C00F24A81142C00F24781DFE8CF
:2038C00014F05400E700EE00F500FC000301090110011701450145011E0125012C0145014F
:2038E0003B0033012700390115003F0101250024002A40F0DB818A8AAB424FEA12220271C2
:2039000040F2338140F26D1303600120F0BC704701250024002A40F0CD814A8AAB424FEA3C
:203920001222027140F226816C1C8A8A0271A34240F27B81651CDEE701250024002A40F0FB
:20394000B7810A8AAB424FEA1222027140F217816C1C4A8A0271A34240F26C81651CDCE7ED
:2039600009240471002B00F0F680002A00F0A48104791470012B4FF00404047140F2F0804A
:203980000227012694559F422D78057180F089817E1C0024B342D555047140F27D8125468B
:2039A000771C0024BB429555047140F2708125467E1CFF24B342D555047140F26381254694
:2039C000771C0124BB429555047140F2568125463E190124B342D555047140F249812546E8
:2039E000371900249F429555047180F03C8125467E1C09249E42D555047180F02F812546AA
:203A0000771C21249F429555047180F0228126467C1C09259C42D655057180F01581161995
:203A2000013435700E7C0671A34240F20881651C16550E8A9D424FEA1626067180F09F802D
:203A400057196C1C3E708E7C06719C4280F0F280651C16554E8A9D424FEA1626067180F080
:203A6000898057196C1C3E700E7D0671A34240F2DC80651C1655898A9D424FEA1121017167
:203A800073D22A44117040F26D13036001203DE7002A00F0B38004790127002672E7002AFD
:203AA00000F0A58005790126002772E7002A00F0978005790127002673E7002A00F0898052
:203AC00005790126002774E7002A5DD005790127002676E7002A00F09E800579012600273B
:203AE00077E7002A00F0958005790127002678E7002A00F08C8005790126002779E7002A92
:203B000000F083800579012700267AE7002A00F08A800679012400277BE7002A00F0818019
:203B20000579164601247CE7002A78D006791746012487E7002A70D006791746012492E75E
:203B4000002A3FF4DFAE017911709CE7002303601846F0BC704740F2571303600120F8E7B7
:203B60004FF4AC7303600120F3E740F26B1303600120EEE740F2691303600120E9E740F248
:203B8000671303600120E4E701240122A342027173D914440122A342027169D914440022E1
:203BA0009C4202715FD2013409229C42027155D2013421229C4202714BD2013409229C4287
:203BC000027141D201340A8A0271A34237D9651CB7E60124FF229C42027153D20134D4E764
:203BE00001240022A342027151D90134F2E701240022A34202714FD90134F2E701242A7852
:203C00000271A3424DD90134F2E70124D1E70124CAE70124C3E70124BCE7012485E6012419
:203C200097E60124CFE70124C8E74FF4B573036001208EE74FF4B4730360012089E74FF453
:203C4000B3730360012084E74FF4B273036001207FE740F26313036001207AE74FF4B17309
:203C60000360012075E740F25F130360012070E74FF4AF73036001206BE740F25D130360A5
:203C8000012066E74FF4AE730360012061E740F25B13036001205CE74FF4AD730360012038
:203CA00057E740F259130360012052E70679E1E60679BDE60679CCE60422012B02717FF698
:203CC0004FAF02249BE700BF0B780E2B0BD8DFE803F0080808080A0C080A0A0A0A080808A8
:203CE00008000020704706207047F0B54B78DA0985B00C46064611D15B09012B02D0062080
:203D000005B0F0BD8C78002CF9D102681373036A002B3AD0214698472046F1E713F0600FBF
:203D2000C3F3411215D0012AE9D18B78072B07D0082BE4D1F268481CB169FFF7B5FADFE779
:203D4000B1F80720182ADAD1C169601CFFF7ACFAD6E703F01F03012BD1D18D78062DCED1ED
:203D600003A80292FFF792FD02AA00920746E278217930463B46FDF7A5FB0528BFD0029A1D
:203D80003946601CFFF790FABAE71846B8E700BF70B54FF0805286B0D2F8A830D2F8A420AF
:203DA00000926FEA83436FEA93430B4A0B4E9BB202A80D210CF0F8FB02AD002404E015F89D
:203DC000013B06F8013B013402A810F091FE8442F5D306B070BD00BFE44E01004C2C002004
:203DE00038B5114B53F8204023780BB9A01C38BD0020FFF74BFD217891B12246C4F1010563
:203E00005319DCB2234620F8141012F8011F0029F6D101335B00DBB243F44073038038BD6B
:203E200040F20233FAE700BF4C4F010040B1052808D8054A105C28B1044B53F820300BB1A7
:203E4000FFF7CEBF00207047644F01004C4F010072B6024A1368013313607047840A0020BD
:203E6000034A1368013B136003B962B6704700BF840A002010B50446006830B1002108F062
:203E8000F9F954F8040F0028F8D110BD2DE9F043038883B0044643B1B3F5867F0CD1822999
:203EA00010D0012003B0BDE8F0834FF486730120238003B0BDE8F08300230380032003B0EF
:203EC000BDE8F08303F070FDBFF35F8F19491A4B0E6800220A601F781A70FFB2BFF35F8F8F
:203EE000164D03F065FD28680028DED0DFF85090DFF8508003E055F8040F0028D5D090F8AE
:203F00004A3026FA03F3DA07F5D590F8493047FA03F3DB07EFD502F083FD0028EBD02B68A0
:203F2000D9F80020009218464246022102F016FDE1E700BF980A0020232C002060000020B8
:203F40008C2D00200140000010B50C4A90F84B30126882B001330092044680F84B30084A28
:203F600003468021203002F0F9FC064B19782246002002B0BDE8104008F000BA8C2D002084
:203F8000493F00009132002010B4094A094C13681943116021780346012202FA03F30B43BD
:203FA000DBB2237004485DF8044B08F015BA00BF980A0020232C002068000020044B1B78D0
:203FC000834286BF034B53F820000020704700BF8C5E01006000002010B5044690F84A102C
:203FE00090F8490003F0F8FA10B994F8480010BD01280ABF94F84800002080F0010010BD7D
:2040000070B582B0044602F00BFD08B902B070BD04F12006304602F003FD05462046FFF73B
:20402000DBFF01280FD00028F0D1002DEED1304602F0DCFC0D4B22462846197802B0BDE873
:20404000704008F09BB9002DE0D0094B094A1B68009300253046234684F84B507E2102F01E
:204060007DFC054B28462246E7E700BF903200208C2D0020493F000092320020F8B508F048
:20408000F1F8304B304C187008F0ECF82F4B304F187008F0E7F82F4922682F4B087000256B
:2040A000FF2139727B60FD60002A42D02B4E09E091F84A00F9683A72834054F8042F0B43EF
:2040C000FB60B2B392F84A3092F84910526C03F01F0343EA41131F2BC6BF03F01F0331468A
:2040E0004FF0A04103F5E07342F08C0241F82350236893F84A1093F8490003F02BFA226803
:2041000092F84A3092F8490003F01F0343EA4010012105F00BFB2168387A91F84920824228
:204120004FF00103C4D0FF28C2D054F8042F002AC8D10B48002108F09DF8BDE8F840044883
:2041400003F05EBA923200206000002090320020880A002091320020893F0000000300505E
:204160006800002030B5174B83B000221A6005F09DF800BB002005F0B5F8134B134A93E864
:204180000300FF250090ADF80410062400231048ADF8005069468DF802408DF8043005F0F1
:2041A0003BFD58B901210A4805F08AFD084805F07BFD03B030BDFDF71DF9DBE7FDF71AF996
:2041C000F0E700BF9C0A0020984F010001420000A04F0100014B1868704700BF9C0A002060
:2041E00008B5064A13680133136002F025FD00B908BDBDE8084002F005BD00BF9C0A0020D8
:20420000042800D07047FFF7EBBF00BF014B1868C00970479C0A0020054A116813685B1AC2
:20422000984204D920BF13685B1A8342FAD370479C0A00204160806A08F0CEB8F0B5858C2A
:2042400083B0044617461E464DB36A2D22D182294AD14568002D62D00023009304F11802FF
:2042600004F11401284601F055FFD4E90431227E101E18BF0120994284F8200046D0637E5B
:204280000133DBB26376002A3AD0032B0ED9042384F820300023A384032003B0F0BD244B0C
:2042A0004560C0E904551B680583836201F072FB3946308101F0B6F82060F0B11D4BC3638B
:2042C00023681C64216991B921683046463101F077FB2368A3F84400206801F0BDF86A2301
:2042E0000120A38403B0F0BD012003B0F0BD80230022304601F026FFE6E7A0840220CCE77E
:20430000032BC4D8022384F82030C3E7089B606898472169227E637E01312161B3E703236F
:2043200080F820302846089B9847A5840220B4E78C2D00203542000070B50388792B82B009
:2043400004460D4645D00AD8502B00F087806B2B16D1804EF36803B3002002B070BD882B49
:2043600062D0912B7ED1882900F081807A4B1B78AB4200F0908091230120238002B070BDC2
:20438000002B6FD175491A460868852107F0F6FF50230120238002B070BD714B5B6A98471C
:2043A000002873D06F4A70497048714E07F0BEFE704808F021F801230820337003F0CAFC85
:2043C0003378002B40F0B8806B232380C1E779232380694BDE68002EBED1082003F07CFD3C
:2043E000334602226548314601F0DCFA6449634801F074FE634964485C2210F049FB594ABD
:2044000059495A4807F092FE5F49604807F08EFE5D4810F06DFB5C490246584801F0BCFEB9
:204420005B4A8823968423805A4B00935A4A534B57482946FFF702FF01288DD9574B1B782C
:20444000002BC4D0474A4849484807F06FFE544807F0D2FF0020FFF7B1FD8CE7852937D037
:2044600001207AE700230320238002B070BD4D4B9A427FF47BAF4C4E3378002B3FF476AF19
:20448000062003F0CDFC0023337074E7304602F0C9FB374E94E7454D2B78002B3FF46BAF40
:2044A000304A3149314807F041FE414807F0A4FF002304202B7003F079FC3E4B1B6A9847FF
:2044C0003848402102F0A4FB374B01221A7052E7314A3948264E152101F0ACF880211D48C1
:2044E00002F096FB082003F009FC3449314800F035FB3349334800F031FB3349334800F009
:204500002DFB3349334800F029FB3349334800F025FB02F0E5FC03F0E9FB03F03DFA08F095
:20452000F7F808F0E5F90F4A0F49104807F0FEFD2B4807F061FF43E70A4A0B490B4807F0D5
:20454000F5FD284807F058FF0B48802102F060FB74E700BF9C0C0020903200208C2D0020CD
:20456000345C0100F04F0100FC4F010004500100242C002038500100AC0C0020DC0B0020F1
:204580008850010098500100DC0A0020F4500100A00A0020E9450000880C0020272C0020EF
:2045A00018510100CC0A0020252C0020262C0020345101002C010020A84F0100C04F0100DD
:2045C000CC4F010094010020D84F010060010020E44F010018020020E84F01003C0200205D
:2045E000145001005850010000B583B058B301A901F0C6FD019820B11A49072210F080FAEC
:2046000068B1194A19491A4807F090FD194807F0F3FE194802F006FB03B05DF804FB124AD6
:204620001249134807F082FD144807F0E5FE082003F090FB042003F07DFC114B01221A70D9
:2046400003B05DF804FB084A0849094807F06EFD0C4807F0D1FE084802F0E4FA03B05DF8BB
:2046600004FB00BF74510100F04F0100FC4F01000450010094510100AC0C00207C51010049
:20468000272C00206051010010B5846882B01CB194F90830002B01DB02B010BD236A002B42
:2046A000FAD01A68002AF7D00749097831B11B6A23B101909847236A01981A68002302B0C4
:2046C000BDE8104000F03CBE282C00202DE9F047124C82B02468DDF828A08CB106460F46A3
:2046E00091469846656843464A463946304625B1CDF800A0A847054638B92468002CF1D14A
:204700000025284602B0BDE8F087B379012BF8D13A463146002000F023FCF2E7BC0C002030
:204720002DE9F04F2DED028BB34CB44E8BB0054620460295884601F0BDFAC4F8A05003468E
:20474000307008BBA279013A032A62D9636823F07F4323F0FF03002B4FD06379032B00F03F
:204760002881208900F0E0FE074600284DD0D0E90F9700F0D5FEB9F1000F00F091809E49C4
:204780003846C847337843B30027C22B2BD0DFF88892384600F0C4FE3278C32A69D0BF2A02
:2047A00084BFA022327002212389934801F0FAF8D9F800100391084610F09AF9039902468B
:2047C0008D4801F0E9FC41468B4801F0F9F8414682B2029800F0BAFF337818460BB0BDEC87
:2047E000028BBDE8F08F384600F09AFE337818460BB0BDEC028BBDE8F08FC32320893370B2
:2048000000F092FE07460028B1D13378002BE4D0BBE703900299208900F004FE07460028B7
:2048200042D0039B62790893CDE906338023ADF8163062BB238972484522022101F0B2F82D
:20484000A27A002A40F0B08007AB00936A480DF11603002206A901F05DFC70B9089B002B92
:204860002ADADFF8B491674BC9F80030822333708FE700223270032196E7BDF81620079BC5
:204880000893802A28BF8022ADF81620E7E701F081F8452203460121594801F083F8CFE7A2
:2048A0003378002B99D06FE7DFF86C91564BC9F80030A32333706CE7BDF8163050494E4817
:2048C00008AD07F18402009508EE903A08EE102AFFF7FCFE034600284DD14748099309A9C4
:2048E00001F0F2FB494BD3F800908246B9F1000F67D0099B03979B46029B4D4699460AE01B
:2049000006DD2A7AD10603D51BF800202F2A08D02D68002D52D06F68384610F0E9F882451C
:20492000EED102465946384610F0EAF80028EFD1A279039F4B460293511E0123012AA946F9
:2049400003FA01F300F0C1809A0740F1A980D9F814A0BAF1000F00F0A38008AB2849009331
:2049600018EE102A18EE903A2348D04799F80830590600F1C0803378002B7FF406AFA37D2E
:204980001A0759D5DFF8789099F90630002B53DB99F816301B074FD4DFF87C901C4BC9F8A1
:2049A0000030A1233370F4E61A49154801F078FB4AE72189029800F0ADF9D2E6039FCDF838
:2049C00008900F48842101F065FB0D48842101F061FB3378002B7FF4D8AE094807F146014C
:2049E00000F0EEFF80B2A7F84400B8B9C123DFF828903370CDE600BFC40C00202A2C002066
:204A0000700D0020D0510100F0510100C00C0020E0510100CF0C0020E40000203378002BA2
:204A20007FF4B3AE384600F017FD337818460BB0BDEC028BBDE8F08F637D089AD91115D1B0
:204A4000002ACAD0DFF80891013218BF01224846802301F077FBB9F8A420D9F8A810802AB9
:204A600028BF8022484601F097FBB2E7079B9A4232D00132069944D0BDF81630DFF8D0906B
:204A80000122334801F05EFBBDF81620B9F8A43093429ED9D9F8A8102D4801F07DFB98E78C
:204AA0005D0705D5D9F818A0BAF1000F7FF455AF180705D5D9F81CA0BAF1000F7FF44DAF4F
:204AC0008521234801F0E6FA7FE7D5F810A0BAF1000F7FF442AF37E7DFF87490B9F8A400A5
:204AE000824219D382231B4989F8063048460F2201F052FB6DE7164A1749484600F030FA8D
:204B000039E7DFF84C90BDF81630B9F8A4209A4294BF00220122B4E7BDF816300699821A0D
:204B20009A4294BF00220122484601F00BFB0798B9F8A430BDF81620D9F8A8101B1A9A42D3
:204B4000014428BF1A46484601F026FB41E700BF700D0020D0510100C40C002010B5044684
:204B6000416001460C4803F015FB94F90830002B00DB10BD206A0028FBD0036A002BF8D081
:204B80000268002AF5D0054BC0E903340830BDE81040002300F0D4BBC00C00208946000002
:204BA00038B50A4A137803B138BD094C094D236009490A482B6001241470FFF7CFFF00F0C6
:204BC000BFFDBDE8384000F0DDBE00BF282C0020BC0C0020C00C0020005201009400002063
:204BE000014B1868704700BFC00C002000B10068704700BF00B583B001460190044803F0F9
:204C00003FFC0199034803B05DF804EB03F00EBB880000201C0E002070B50D4B1C68A4B179
:204C20000546002601E024686CB1294604F1180000F0EAFC0028F6D02046FFF7DBFF246877
:204C40000136002CF1D1304670BD2646304670BD1C0E00202DE9F041164B1C682CB30546DD
:204C60000F4616464FF0000801E02468D4B1294604F1180000F0C8FC0028F6D094F82C3044
:204C8000B342F2D13246394604F12D000FF0F2FE0028EAD12046FFF7ADFF246808F10108DB
:204CA000002CE4D14046BDE8F081A0464046BDE8F08100BF1C0E00202DE9F041144B1C68C2
:204CC0000CB306460F464FF00008251D314604F1180016B100F098FC78B1BD42284607D0AF
:204CE0000FF006FF3946024628460FF0C3FE20B92046FFF77FFF08F101082468002CE4D199
:204D00004046BDE8F081A0464046BDE8F08100BF1C0E0020F8B50E4B1C68ACB105460E46E6
:204D20000027294604F1180000F06EFC10B1E38EB34204D02468002CF3D13846F8BD204666
:204D4000FFF758FF0137F5E727463846F8BD00BF1C0E00202DE9F04F2DED028B8046E1B0F6
:204D60000C46002800F0C8804168029108460FF0BFFE05AE05460299304613220FF0D2FE28
:204D8000122D40F2918000240DF1280A23465046452201210DF1D40BF47400F003FE234616
:204DA00001222146584600F0FDFD3146584601F095F930460FF09CFE98F80830C3F30013AD
:204DC00005460293604B1C68002C68D008EE106A09E005DD029B1BB163191B792F2B08D07A
:204DE0002468002C5BD0271D38460FF081FEA842EFD118EE100A39462A460FF081FE814692
:204E00000028EDD100F0C6FD04F1180100F00AFB07460028E4D0A26B4C4B4D4903FB021281
:204E20004C4BB3EBB20F28BF8AF805908088E08604AB009307F184024FF0000CAAF808005B
:204E40008023514658460392CDF810C0FFF73EFC58B9B8F1000F73D004AB0093039AD8F865
:204E60001060802351465846B0479AF90630002B24DA94F82C2004F12D01504601F010F976
:204E8000049A32BB07F14601504600F099FDA7F84400384600F0E0FA2468002CA3D161B0C4
:204EA000BDEC028BBDE8F08F002C3FF46CAF2146C5F1130270190FF035FE64E7A16B4B1C73
:204EC000A363504601F01EF9A36B23F07F43A363CFE7013218BF012280230021504601F017
:204EE00031F9BAF8A420DAF8A810802A28BF8022504601F051F9C5E70029D0D005AE132227
:204F000030460DF1280A0FF00DFE0DF1D40B504643464522012186F8138000F043FD434692
:204F200001225846414600F03DFD3146584601F0D5F830460FF0DCFD01230546029341E7B2
:204F400080238AF8063094E71C0E0020CDCCCCCC98999919CCCCCC0C0021FFF7FBBE00BF1E
:204F60008B79012B00D070472DE9F04792F90630002B82B0154650DBCB7C5B060C464CD56E
:204F8000D1F8A070002F48D04B6E4BB1012B44D18A7A38460B3102B0BDE8F047FFF75ABEA1
:204FA000096E0191384694F80AA0D4F85C80FFF783FE204803F048FA064688B3B8F1120F27
:204FC000C146C4BF4FF01308C146B144424601994FF0000804300FF05BFD394606F118006F
:204FE00089F8048000F000FB524604F10B0186F82CA006F12D000FF04BFD0F48A6F83680C8
:20500000314603F0C7F8B16B4B1CB363284601F079F8B36B23F07F43B36302B0BDE8F08727
:205020000649A32328461022AB7102B0BDE8F04701F0B2B8880000201C0E0020145201005D
:205040002DE9F04F2DED028B83B008EE101ADDF8389001929846FFF7C3FD002800F0B680EF
:205060000025D9F800B006462C46A34508D8454512D2019B4FF03C025A55D9F800B0013517
:20508000631C5B4508D3454506D2019B4FF02F025A55D9F800B00135D6F804A050460FF03B
:2050A00027FD023427185F4558D801D145456DD3D6F80CB07C1CBBF1000F17D09BF8003060
:2050C000A3B1D9F800A0A24509D8454507D2019A3B235355D6F80CB0D9F800A00135584670
:2050E0000FF006FD02373C18544512D8454504D9D9F80030621B9A4271D83046FFF776FDB5
:205100000646002847D0DCB9D9F800B0A345B7D8ADE70198384AAAEB070308F10101002B03
:20512000ACBF5B440BF10003491B28440BF03CFA0544454553D83046FFF758FD0646B8B3EF
:20514000D9F800B0A34507D8454505D2019A2C235355D9F800B00135013486E70198264AB2
:20516000ABEB040B08F10101BBF1000FACBF0AEB0B030AF10003491B28440BF015FA054445
:20518000454508D2D9F800309F4291D3019A3E23535501358CE715BB5CB9BEB1D9F80030C3
:2051A0004344C9F8003003B0BDEC028BBDE8F08FADB9822118EE100A00F06CFF18EE100AC6
:2051C0000E490F2200F0E8FF002EE7D14FF0FF33C9F8003003B0BDEC028BBDE8F08F019981
:2051E00018EE100A2A4600F0D7FF18EE100A282100F062FFD1E700BF28520100D05101008B
:20520000014807F0E9B800BFB80000202DE93048FEF7E0FF0E4B1A68821A04D10D4BD3E954
:205220000001BDE830880B4C18604FF47A71A2FB01BCD4E900254FEADB1040EA4C60801845
:205240004FEADC1145EB0101C4E90001BDE83088240E0020280500200148002107F00AB829
:20526000B8000020074B0848084A1B6810B4002101240470116013B15DF8044B18475DF8D4
:20528000044B704748520100292C0020380E00202DE9F0471E4B1B7882B0054643B3DFF8FF
:2052A00074A029465046DAF8007002F0BFFFDAF8001019B3D5E90489002603E00C680E4619
:2052C000F4B12146D1E90423994508BF9045F5D22A461048314602F0CDFFDAF80050AF4290
:2052E00009D00D4B9B68019302B0BDE8F0471847FFF7B8FFD3E702B0BDE8F087002DEED0D9
:205300002A46044802F0B6FFDAF80050E7E700BF292C0020380E002048520100064B10B5EF
:205320005B6804469847C4E9040121460348BDE8104002F07BBF00BF48520100380E00203C
:20534000084970B5496805461E4614468847241846EB0101C5E904412846BDE87040FFF733
:2053600097BF00BF4852010038B50B4B1C687CB10A4B5B689847D4E90445A94208BFA042F8
:2053800002D30020014638BD201A65EB010138BD4EF66020002138BD380E00204852010080
:2053A000F8B5134F134E7C68A04735683DB102460B46D5E904018B4208BF824201D2002080
:2053C000F8BD2946304602F031FF6B680BB128469847BB6898473368002BF0D0D3E9046786
:2053E000A047B94208BFB0422CBF01200020F8BD48520100380E002000B583B001460830C9
:205400000191FFF78BFF0199044802F00FFF0199034803B05DF804EB03F032B83C0E002071
:20542000C800002070B5064609480D4603F00CF8044658B10023868080F82430294626306B
:2054400000F0D2F80348214602F0A4FE204670BDC80000203C0E00202DE9F04190F8463022
:2054600013F0300F0446C3F3011526D190F82430042B13D8B0F8442000F14601263000F05D
:2054800065F994F8243023B3226A5200226204F108000023BDE8F041FFF752BFD0E90F676A
:2054A0002630FFF7B9FB2046FFF7A6FF46B3294638463346BDE8F0411847B0F8442000F15A
:2054C0004601263000F042F92046BDE8F041FFF793BF0C4BC4E9033407F006F80A4BA3FB5D
:2054E00000239B0A40F2DD5202FB130202F6B832226204F108000023BDE8F041FFF720BF40
:20550000BDE8F0810D550000B76FA5AE806830B190F82430013380F82430FFF79DBF7047EC
:2055200008B1FFF769BF7047044B02E09A88824202D01B68002BF9D1184670473C0E0020FD
:20554000F8B50288044662B140F2B9139A4217D11D4B1B788B4217D040F2B9132380012084
:20556000F8BD114610460BF015FF184B186038B343F21633038240F2B91323800120EFE759
:20558000002303800320F8BD114B1B789B07E3D5104E114F114DB7F800C0114F96E80F00CC
:2055A000203685E80F003CF806C00E4E3A883168A5F810C000232846AB74FFF7B1F8CBE7FA
:2055C00020800220F8BD00BF97320020580E002078310020903000201A2C0020440E0020A5
:2055E00078300020803100208B684A6830B40C68CD68C5600460426083600B8A03828B7CB1
:20560000837430BC704700BF38B5102205460C460FF030FA58B92A8A238A9A4200D038BD39
:20562000A87CA37CC01AB0FA80F0400938BD002038BD00BF2DE9F0470C1E8AB0804617464D
:2056400036DD0346002502E00135AC4230D0994613F8012B5B2AF7D1AC4229DD08EB050371
:205660002E46B2460136B44222D013F8012F5D2AF7D13149062240460FF042FAB0FA80F098
:205680004009AE42B8741CDD484639460DF0C2FEB8B10AF1020A08EB0A0018F80A303A2BC6
:2056A0002CD0BB7C1BB343F216433B8201200BE02149062240460FF023FAB0FA80F35B09DD
:2056C000BB74272C03D900200AB0BDE8F0874146224668460FF0DCF90AAB1C44684600231F
:2056E000394604F8283C0DF095FE0028ECD043F2163301203B820AB0BDE8F087023CA61B26
:20570000CFD00022114604E001318E4203EB4C0209D010F8013F303BDDB2092D02EB820C83
:20572000F2D90029BDD0054BC2F3072103EA02230B433B820120C7E75452010000FFFF002A
:205740000148002106F096BDD400002070B582B0B8B11446028848F2FE039A420E46054648
:2057600003D00A4B5B6A984758B1094A2B8A10680093314622462B460DF026F9204602B0BD
:2057800070BD4FF0FF34204602B070BD345C0100580E00200C2830B440D9B0F5867F94BFE0
:2057A0006FF02F046FF01F040C2935D9B1F5867F94BF0D230E232343B0F5867F137016D9B1
:2057C0006FF4867543191B0A0D385370907002230320B1F5867F15D96FF486740C19D51892
:2057E000240A0D391454A970D81C30BC70470C280FD90D38B1F5867F50704FF001034FF0CF
:205800000200E9D80C29F0D90D39115430BC0130704701200023DCE74BB2CCE703015CB27F
:20582000C2E700BF2DE9F0411E0C13F07F474FEA06461C4615460B4614BF01210021CEB19E
:20584000013124F0FF080231C01A2A46FFF7A2FFCFB1230E2B54421C1EB3230CAB54023028
:20586000B8F1000F02D0230A2B5401302C540130BDE8F08134F0FF08E5D14CB9BDE8F0413E
:20588000C01AFFF787BF6EB1230C2B540130EAE70131C01AFFF77EFF002FDAD1002CE7D0E7
:2058A000E4E71046B8F1000FDDD1002CE0D0DDE7F8B50E689DF818700C461D4616B902609B
:2058C0002360F8BD03689F550B6801330B600068114618442A460FF0E9F823682B44236037
:2058E000F8BD00BFF8B5069D401A29461F46FFF751FF3946044610182A460FF0C9F828190E
:20590000F8BD00BF2DE9F04F83B092460C9A9DF83440019401320024984683469946009200
:20592000274625468E4604E0009B01349C42274623D818F807C0019B08EB0706A6EB0906AE
:205940009C450AEB0502ABEB0E00314602D00C9BBB42E9D1FFF71EFF054449460AEB05003A
:2059600032460FF095F80134009B08EB040901349C423544DE462746DBD9284603B0BDE8BC
:20598000F08F00BF08B506F0AFFD014B188008BD0C2C0020024B1888013080B218807047CA
:2059A0000C2C0020F8B504460F4616461D46AC2200210FF095F86771A6712581F8BD00BF00
:2059C000F0B501220023016002710B7002680F461378017943EA81131370026843791178D6
:2059E0001B0103F030030B4313700268837A117803F00F030B431370036882795A70038912
:205A000002681B0A937003680289DA70837983B00446002B00F040810368827A1D1D62B1AB
:205A20006FF00301C91A00F10B0313F8012B05F8012BA67A6A189642F7D8E37C9807C3F3C4
:205A400040010CD594F86A3000932A4604F16B0300210120FFF746FFE37C054401211A0730
:205A600009D5236C0093636C2A460320FFF73AFFE37C05440321DE060BD594F82430009392
:205A80002A4604F125030420FFF72CFFE37C05440421980607D500232A460520FFF7C2FE7F
:205AA000E37C054405215A0607D5636E2A460620FFF7B8FEE37C05440621DB0907D02A46CF
:205AC000B4F850300720FFF7ADFE07210544237DDE070BD5A36C2F22CDE900320820E36C3D
:205AE0002A46FFF70FFF237D0544082118070BD5E36D2F22CDE900320B20236E2A46FFF776
:205B000001FF237D05440B21DA0607D5A38B2A460C20FFF787FE237D05440C215E0607D519
:205B2000236A2A460E20FFF77DFE237D05440E21DB090CD0D4F894302622CDE900320F2002
:205B40002A46D4F89830FFF7DDFE0F210544637D980708D5B4F868302A461120FFF762FE60
:205B6000637D05441121DA060BD5636D2622CDE900321420A36D2A46FFF7C4FE637D054475
:205B80001421DB091AD0636F94F878201B01002A40F08580B4F87A2000201209461C520854
:205BA0008446B0B2FAD118B10CF00F0C43EA0C032A461720FFF736FE17210544A37D1E073B
:205BC0001BD5D4F8803094F884201B01002A69D1B4F8862000201209461C52088446B0B234
:205BE000FAD118B10CF00F0C43EA0C032A461B20FFF718FEA37D05441B21D80607D52A4638
:205C0000D4F88C301C20FFF70DFE1C210544E37D1A0709D5236B0093636B2A462320FFF742
:205C200061FEE37D05442321DB0908D0A36B00932A46E36B2720FFF755FE27210544A37EBB
:205C4000DB0611D42368EB1A3E2B18DCB4F8A420E2B9D4F8A81028460EF028FFB4F8A4001F
:205C6000ED1B284403B0F0BDD4F890302A463C20FFF7D8FD23680544EB1A3E2BE6DD0B4BD2
:205C80000B4A002020601A6003B0F0BDFF2305F8013BB4F8A420DCE7042003B0F0BD43F0F0
:205CA000080377E743F0080392E700BFE400002068520100032A40F2CC802DE9F047044604
:205CC0000D4682B0002191460430A8220EF008FF256095F800804FEA981884F804802B7826
:205CE000C3F3011363712A7802F00F02A2726B78A371A978EB78B8F1010F43EA0123238124
:205D00007CD1082A00F2AC80291D8E1805EB090A564576D804F10B000EF0BAFE0027564596
:205D2000C4F81370C4F8177080F0A580337803F0F002F02A00F08781711C8A454FEA1310F2
:205D400003F00F035DD90D285FD00E2868D00D2B62D00E2B70D0CE18B24552D307443C2F9B
:205D60004FD804EBD70C07F007029CF8130008FA02F20243781E8CF8132002463B2A74D802
:205D8000DFE812F07B0073008600890094009700A400B30073007300BD00C7007300D50009
:205DA000E2007300EC0073007300FB0073007300050173007300730024014501730073002B
:205DC0007300730073007300690073007300730069007300730073007300730073007300A7
:205DE00073007300730073007300730073007300730073007300730073005301A04BA14AA2
:205E00001A60802002B0BDE8F0877078B11C0D308A45F6D90D2B9CD111F8013B0D339AE75F
:205E20007078B21C92454FEA0020EAD9B27802F20D121044F11CEBE70E4616F8013BB245B4
:205E40004FEA0323DDD94A7802F20D121344023181E7802070478A4B8B4A1A60A520D1E76E
:205E6000874B8A4A1A608020CCE7FB0700F10281B2453FF65BAF0020C4E7082B28BF0823F3
:205E80001A4684F86A3004F16B000EF001FEEFE7C4E91031ECE7082B28BF08231A4684F877
:205EA000243004F125000EF0F3FDE1E784F89C80DEE74BB1013BC8180139002311F8012FB3
:205EC000884242EA0323F9D16366D1E753B1013BC8180139002311F8012F884242EA032389
:205EE000F9D19BB2A4F85030C2E72F200A46009004F1480104F14C00FFF7DAFCB8E72F205E
:205F00000A46009004F15C0104F16000FFF7D0FCAEE753B1013BC8180139002311F8012FED
:205F2000884242EA0323F9D19BB2A383A0E74BB1013BC8180139002311F8012F884242EADD
:205F40000323F9D1236293E726200A46009004F1940104F19800FFF7ABFC89E753B1013BC8
:205F6000C8180139002311F8012F884242EA0323F9D19BB2A4F868307AE726200A460090BD
:205F800004F1540104F15800FFF792FC70E7002B6CD0013B0B440020013911F8012F8B423D
:205FA00042EA0020F9D100F00703102120F00F02994089B202FA03F3C0F3C002000984F87F
:205FC0007820A4F87A10E367606751E7002B49D0013B0B440020013911F8012F8B4242EA5F
:205FE0000020F9D100F00703102120F00F02994089B202FA03F3C0F3C002000984F88420C7
:20600000A4F88610C4F88830C4F8800030E74BB1013BC8180139002311F8012F884242EAE3
:206020000323F9D1C4F88C3022E74BB1013BC8180139002311F8012F884242EA0323F9D15B
:20604000C4F8903014E70136751BA9EB0505ADB2802D88BF80250020C4F8A860A4F8A450F8
:206060007055CFE6184610211A46C7E7184610211A46A4E7024B064A1A608220C2E600BF6F
:20608000E400002098520100D8520100B052010000530100FF299ABF817101200020704724
:2060A00010B5082A28BF0822144682720B300EF0EFFC204610BD00BF037D818343F01003AA
:2060C00003750120704700BF037DC3F3C0021B0702D5036E0B60C26D104670470B782F2BCB
:2060E00010B5044603D111F8013F2F2BFBD0216608460EF0FDFC237DE06543F008032375C8
:2061000010BD00BFC37C416643F04003C3740120704700BF30B40446407DC0110FD009B174
:20612000656F0D6012B194F87810117013B1B4F87A201A80029B13B1029AE36F136030BC74
:20614000704700BF10B4A3F11004B4F5FE6F02D8B1F5801F03D300205DF8044B7047447D16
:206160004167003A64F07F0118BF012280F87820A0F87A3041755DF8044B0120704700BF2C
:2061800011B1D0F8A8300B60D0F8A83013B1B0F8A4007047184670470346802A28BF80223A
:2061A0001046A3F8A420C3F8A81070472DE9F04105F070FFFDF7D6FF08F086FD06F07CF8A7
:2061C00000216648664FDFF8EC81664D664C674E06F050F800F0B4FB0DF036FB0AF000FADE
:2061E00005F060FF06F016F9614B1B6898477B689847D8F804309847A979EB79226803EB95
:206200000123022A338025DC5A4B29686A6819605A605948002106F02DF84FF0FF300BF0F9
:206220005FFD2368022B054600F3818005F05CFFFEF7B6FC5148FDF71DFE0DF02FFB06F04F
:2062400041F804460DF032FB14F0FF0FF7D105F051FFF4E74A4A4B494B4805F067FF4B48EE
:2062600006F0CAF82368022BCEDD454A4549464805F05CFF464B4748196805F057FF236891
:20628000022BC1DD3E4A3F493F4805F04FFFD8F80010414805F04AFF2368022BB4DD384AE7
:2062A0003849394805F042FF39683C4805F03EFF2368022BA8DD324A3249334805F036FF76
:2062C00037484AF6CD3105F031FF2368022B9BDD2B4A2C492C4805F029FF32481A2105F087
:2062E00025FF2368022B8FDD254A2649264805F01DFF31882C4805F019FF2368022B83DDA7
:206300001F4A2049204805F011FF284805F00EFF2368022B7FF778AF284601F0F1FF23689D
:20632000022B7FF771AF0A2006F064F86CE7144A1449154805F0FAFE1D4805F0F7FE2368EC
:20634000022B7FF773AF284601F0CAFF2368022B7FF76CAF0A2006F04DF867E71C01002017
:20636000145401007C2C0020C80100200E2C0020205901008030002000030020C851010022
:206380001C530100FC4F01000450010024530100345C01005C5301006C53010078530100A7
:2063A00084530100A0530100C0530100D0530100E8530100B45C010030B590F82D50012D74
:2063C00083B0044611D91F2506F08EF8094BB0FBF5F11B68009301FB1501074A234604F1DA
:2063E0000C0000F0BBFA03B030BDE91C01258D40013DE9E78C2D00207D6400002DE9F0473F
:206400000D468B6892F82C708146506BD3E90068144601F00BFF686806F038F8A9681348B3
:2064200002F02EF81248294602F02AF8636B1B6873B10023A3852046FFF7BEFF36B13A4627
:20644000494640463346BDE8F0471847BDE8F08704F10C0000F0CAFA2146064801F0E6FE18
:206460002146054802F00CF8E8E700BFE800002000010020C40E0020F4000020F8B12DE9F6
:20648000F047436B1D6882B00446ADB1686806F013F863490C2005F0E5FD0121072005F0FA
:2064A000D5FD00F059F900280ADAAB6823B1052022462946FFF7A2FF02B0BDE8F0877047BD
:2064C00005F01EFDDFF85C8190F80290D8F8047005F016FD064605F01DFD01463046B8477B
:2064E00005F0D0FDD8F818600746B04770BB002F50D1D8F81CA0D04740BBD8F8087005F0F8
:2065000009FDB84700285CD002281FD0AB68002BD2D00420CCE708F00BFC6FF028031E1A91
:2065200003E008F005FCC64202D5D0470028F8D0D04700285DD0D8F81030032101A8984771
:20654000032803D19DF806304B452AD0AA68002AB2D094F82D300133DBB2052B84F82D3076
:2065600094F82C3006D90133DBB2002184F82C3084F82D10127A9A4205D8224629460120A4
:20658000FFF73CFF98E72046FFF716FF686805F077FF91E7D8F8086005F0BCFCB047002823
:2065A000B2D1AB68002B87D094F82C3000200133294684F82C3084F82D002246FFF71EFF1C
:2065C0007AE708F0B5FB6FF018073F1A03E008F0AFFBC74202D5D0470028F8D0B047002850
:2065E00099D1D047002896D1D8F814309847002891D0A96800293FF45FAF94F82C30013378
:20660000DBB2002284F82C3084F82D200A7A9A42B9D8224629460220FFF7F0FE4CE700BF6A
:206620007C2C0020205901002DE9F04105460D200F4605F01FFD064601F092FE01210B20D9
:2066400005F004FD374B1C6814B914E0246894B13146201D01F096FD0028F7D0606B01F0C9
:20666000FFFD07281EDDDDB138462B460122BDE8F041062118472C4801F0E6FE044600283D
:20668000F1D03146201D01F077FD002304F13002C4E90C322348A385214601F07BFDDDE7C4
:2066A000BDE8F081214801F0CFFE064660B3204801F0CAFEB06018B305F0C0FE7060D8B136
:2066C0000520D6F8088005F0C7FCC8E9005710F0FF0006BF082388F8083088F80800606B85
:2066E000314601F057FD636B1B689E42D8D12046BDE8F041FFF760BEB1680D4801F0C0FE97
:206700000A48314601F0BCFE606B01F0A9FD0028A9D12146034801F089FD2146024801F036
:20672000AFFEA0E7C40E0020F400002000010020E800002008B5054801F074FE044801F04C
:2067400071FEBDE80840034801F06CBE00010020E8000020F400002010B501210B2005F033
:2067600075FC024BBDE810405B6818479C550100014B9B68184700BF9C550100014B1B6A22
:20678000184700BF20590100014B5B6A184700BF2059010010B50D4B82B01B6898470C4BB0
:2067A00004469B6A01A91920984701280BD0002C0198B8BF15248028D4BFC4EB0000C4F1B0
:2067C000800002B010BD002002B010BD9C55010020590100FFF728BF00B583B005F094FB66
:2067E000032802D103B05DF804FBFFF7C1FF0028F8DB0D2005F03EFC1F4901F0C3FCE8B1D6
:206800000C2005F037FC1C4901F0BCFC0028E9D101F0B0FDB8B1072005F01EFC0028E1D01E
:206820000223ADF8043005F06BFB144B8278DB688DF80620032101A89847D3E705F022FC3F
:206840000028DDD1CEE701F0BBFD072005F004FC18B90B4B9B689847C4E70223ADF8043036
:2068600005F04EFB054B8278DB688DF80620032101A89847EDE700BF7C2C00202059010021
:20688000B45C010030B50D4C83B0A56A69461920A84748B901A90420A84738B101F058FDA3
:2068A000FFF748FF236A984703B030BD0199E36A21F00201019104209847EFE720590100AF
:2068C000F8B5038805462BB14A2B14D1882916D00120F8BD174B1C6834B1A168201D00F091
:2068E00097F92468002CF8D1134B01221A704A232B800120F8BD002303800320F8BD0D4BB8
:206900001C68002CF3D0231D9A4205D02468231D002CECD09A42F9D10648084E214601F0BD
:2069200085FCD4E90523376832600BB1E06998473760DCE7A40F00202B2C00208C2D00205F
:20694000034A044B044800211170196005F092BC2B2C0020A40F00200C01002070B50E4CFB
:20696000049E25784661C0E90623044635B9A1600A482146BDE8704001F00CBC084D094BB6
:206980002E682B60043000F043F92E6021460348BDE8704001F0FEBB2B2C0020A40F0020ED
:2069A0008C2D00200C01002070B50C4B1B7804462BB921460A48BDE8704001F0EBBB094D99
:2069C000094B2E682B60043000F02CF92E6021460348BDE8704001F0DDBB00BF2B2C0020A5
:2069E000A40F00208C2D00200C01002010B50A4B1B7804463BB9C0E9033321460748BDE899
:206A0000104001F013BC043000F01EF921460348BDE8104001F00ABC2B2C0020A40F002083
:206A2000094B1A7842B9094B01E0984209D01B68002BFAD1012070470069B0FA80F0400970
:206A400070470020704700BF2B2C0020A40F002010B50446C0B20CF0C3FE0A2C01D02046F4
:206A600010BD0CF08DFE204610BD00BFF8B588B10F46461E002500E0013516F8014F204632
:206A80004CB1AF4207D00CF0ABFE0A2CF4D10CF077FEF1E705460CF073FE2846F8BD00BFAE
:206AA00010B5FDF797FB0B4B1A68D2E9003192680B44191A52B1D2E9003423441B1A9268C3
:206AC000994228BF1946002AF5D14318024A136010BD00BFAC0F0020A80F00202DE9F843FC
:206AE000038805465BB3592B2CD187292FD0822920D12C4FDFF8B4803C684FF00009CCB1F7
:206B0000002603E0A3682646A3B11C4620460AF0AFFD0028F6D0E0682246882105F02EFCCD
:206B200003464046002B2AD005F056FCA3682646002BEAD159232B800120BDE8F883194AF2
:206B40001360F7E7002303800320BDE8F883154F3968002019B9EDE789680120D9B1CB6861
:206B60009342F9D000B139608B68002BE2D0D868904207BF9B688B6019469B68F5E7E36016
:206B8000A3686EB1B3603B68C4F808902BB1FFF787FF3C68B3E73960CCE7034A1360C9E76F
:206BA0003B60F1E7AC0F0020A80F00201C01002010B50446104805F00FFC1049E3680A68F6
:206BC0004BB142B194420FD0134601E09C420BD09B68002BFAD10A4BA2601B68E3600C609C
:206BE000BDE81040FFF75CBF054B1B68E360BDE81040FFF755BF00BF1C010020AC0F0020A3
:206C00008C2D0020014805F0E7BB00BF1C01002010B504460AF016FD2046BDE81040FFF752
:206C2000C7BF00BF10B504460AF014FD2046BDE81040FFF7BDBF00BF024B1868003818BF8D
:206C400001207047AC0F002010B5124B19688142044614D00B462BB19A68A24206D01346AB
:206C6000002BF9D10023C4E9023310BDA2689A6049B1FFF715FF0023C4E9023310BD826889
:206C80001A60002AF5D1044B00221A600023C4E9023310BDAC0F0020A80F002008B5094A0B
:206CA00009490A4805F042FA094805F0A5FB094B002202201A7001F0B3F8BDE80840064820
:206CC000FEF74AB94C540100FC4F0100045001005C540100262C00202C01002030B5104BCA
:206CE0001878012883B00C46154617D00D4B0E4A022818BF1346322120460193FFF7DCF9F2
:206D0000019B0A4A8021284609F04EFC29460246204603B0BDE83040FFF73EBA044BEAE73E
:206D20002C2C00208C5401009C56010098540100845401002DE9F04F8BB00C46002505A98C
:206D40001F46164605950390FFF71AFADFF88881534A54498146544805F0E8F9534805F058
:206D60004BFB98F800A0BAF1000F57D1B9F1000F3DD0059900293AD0B9F10F0F28BF4FF036
:206D80000F094A4606A80DF083FE0AAB03EB0902474902F810AC06A80CF03AFEDFF83C91A5
:206DA00099F800A050BB042000F0A8FF082000F0D1FF4FF0010BBAF1000F47D03D4889F8D2
:206DC00000B0FEF7C9F8149B009303983B4632462146FFF783FF0BB0BDE8F08F3649304AC0
:206DE000314805F0A3F9354806A905F09FF920468021FFF74FF90BB0BDE8F08F304906A885
:206E00000CF006FEC8B12F4906A80CF001FE83460028E3D10C2001F003F8CFE7204A26498C
:206E2000214805F083F9284805F0E6FA2046A321FFF730F90BB0BDE8F08F082000F05EFF96
:206E4000042000F087FF4FF0020BB4E71F4B144A1D681449144805F1010CC3F800C005F038
:206E600065F91A4B1A481968032205F05FF9174B1A68022AA2DD01220220C3F800A088F84B
:206E8000002089F800A000F091FF054A0A49064805F04CF90F4805F0AFFA064891E700BF8D
:206EA0004C540100FC4F010004500100A8540100F45401002C010020C0540100045501008E
:206EC000FC5401009C560100C8540100B00F00204C55010018550100262C00202C2C002078
:206EE000014B024A1A6270472C0100209D6C0000014B1888704700BFFC03002000283ED0BA
:206F0000037A022B30B410D00378022B15D00379B3B10024C37913F0030318BF012301B180
:206F20000C6002B1136030BC7047C579447A037965B90CB9012BF2D0DBB100231C46EEE7ED
:206F4000447A14F0030418BF0124E3E7C4B1032D37D1032C2ED0022C24D143BB022D2DD07B
:206F60000123032D24D1A4F10204B4FA84F46409D5E7023C012C8CBF00240124CFE7704772
:206F80004BB9022D08BF0123EAD1A4F10304B4FA84F46409C3E7032D01D0022D02D12346D3
:206FA0001C46BCE7002BC8D1022DDAD1EDE701230024B4E7002BC0D10123D4E701231C4656
:206FC000ADE7022DC7D1002BF1D1022C4FF00103DBD11C46A3E700BF30B500230B608B8023
:206FE000437DDB075CBF01230B70037E012B83B00D46044623D901AA694604F11000FFF767
:207000007DFF009B0BB10223EB70019B0BB102236B70E37D03F00303022B03D0032B14BF6B
:2070200000230823AB70637E03F00303022B03D0032B14BF002308232B7103B030BDC37D42
:2070400013F0030309D0437E13F0030305D0C38B828B9B1AB3FA83F35B092375CBE700BF0F
:2070600002280CBF012307230B441A78FF2A184603F1FF3303D18142F7D1012070470020E8
:20708000704700BF30B583B06946FFF7A5FF9DF800309DF801509DF802409DF803109DF85A
:2070A00004209DF8050002332B4423440B441344184403B030BD00BF70B443788278057850
:2070C000C478DB00120102F0100203F008031343027905F0070564012B4304F02004920134
:2070E000234302F0400213430B7043798579467AC479027A03F001036D0043EA861305F0D3
:207100000205A0002B4300F00C001201034302F03002134370BC4B70704700BF70B582B0D7
:207120000D4604466946FFF757FF04F110002946FFF7C2FF9DF80030012B04BFA37EAB709C
:207140009DF801300CBF03200220022B06D1A38B2B54A38B421C1B0AAB5402309DF80260CF
:2071600056B1731E234429181A7801F8012BA34203F1FF33F8D130449DF80330022B06D104
:20718000E38B2B54E38B421C1B0AAB5402309DF8046056B1F31D23442918073413F80129B8
:2071A00001F8012BA342F9D1304402B070BD00BF30B40278437802F00700C2F3C005C2F3A8
:2071C00000140870C2F34010C2F380124D708C7003F00105C3F34004C8700A71C3F3810041
:2071E000C3F301129B094D718C71C87130BC0A724B727047012943DD2DE9F04186B00F4636
:2072000003A914460546FFF7D3FF03AB03CB9DF811201B882383206161616AB3AE1C03A8F5
:2072200002AA01A9FFF76AFE9DF81380B8F1000F43D0029B002B31D1B8F1020FA38367D0C6
:20724000B8F1030F4DD09DF81580B8F1000F2CD0019BBBB9A38BE383B8F1020F4DD0B8F154
:20726000030F31D0701B3B1A8742C4E90E6300DA002006B0BDE8F081AB78A376EE1CCEE773
:2072800000207047717816F8023B029A03EB01239BB2E383002ADFD1A383DDE7727816F8C6
:2072A000023B03EB02239BB2C6E71E4904F1080000F062FFA4F81E80D4E71A49204600F021
:2072C0005BFFA4F81C80BEE706F10800034604F1080213F8011D02F8011BB342F9D10646E6
:2072E000C0E706F108000346621E13F8011D02F8011FB342F9D10646A5E70A4904F10800F5
:2073000000F03AFF7378237216F8023B6372A9E70449204600F030FF7378237016F8023B79
:20732000637090E79C58010030B591B004F0D8FD044604F0E9FD6A4601462046FFF75AFF4F
:2073400000283ED0044604F0AFFDD0B39DF810100B2004F07BFE9DF81310072004F076FEF6
:207360009DF817308BB1BDF81C50FFF7C1FD854205D0BDF81C204FF6FF739A4221D19DF879
:2073800017006946FFF76CFEB0B102A90C2004F069FE9DF815303BB14FF6FF71062004F09F
:2073A00055FE204611B030BD9DF81A10062004F04DFE204611B030BD69460D2004F052FE0E
:2073C000E3E74FF0FF34ECE7F8B505460B2014460E46A84700232074A37496B3E374637598
:2073E0000820A847002701232376A07567740620A847A076FFF77CFDE0830920A847012864
:207400000CBF3B4603236376FFF772FDA0830A20A84701281AD066B90323E375637E022BC2
:207420000CD0E37DA3F10203B3FA83F35B092375F8BD0223E375637E022BF2D10123237599
:20744000F8BD0720A8476675E074C9E7E775E5E730B591B00546FFF74BFD4FF6FF74A04211
:207460003AD04022002168460DF03AFB04F00AFE6A4601461A48FFF7A7FF04F003FE18B3EE
:20748000ADF800400C2004F0F5FD014602A800F073FE04F025FD0E9004F036FD03466846D1
:2074A0000F93FFF7EFFD044615B9204611B030BD04F0CAFC80B104F023FD01466846FFF732
:2074C0002DFE204611B030BD0D2004F0D3FD0146684600F051FED5E74FF0FF34E5E700BF8F
:2074E00059C000000120FFF7B3BF00BF0020FFF7AFBF00BF0649074A074B9B1A03DD043B22
:20750000C858D050FBDC09F04BFEF9F739FF00009C6001000800002008040020FEE7FEE7CF
:20752000FEE7FEE7FEE7FEE7FEE7FEE7FEE7FEE700F01F030121C0F34710994000F066B8FE
:2075400008B502F057F800B108BDBDE8084002F007B800BF30B583B01446022301F01F01B2
:2075600000228DF8063014F00C0341EA4015ADF8042006D0042B25D0082B27D00C2B02D1A4
:2075800003238DF8043014F0030304D0022B15D0012B02D103238DF805300E4A01A92846CD
:2075A00002F032F82306284603D402F02BF903B030BD012102F0BAF803B030BD01238DF87C
:2075C0000530EAE701238DF80430DCE702238DF80430D8E73175000001F01F0141EA401036
:2075E0001F28CABF054B4FF0A04300F01F00D3F8101521FA00F000F0010070470003005044
:207600000146014800F0C6BDB40F002070B50C4B1C689CB105460E4601E0246874B1237A69
:20762000AB42FAD1E36816EA0301F6D063682846002BF2D098472468002CF0D170BD00BF13
:20764000B40F0020024B00221A60FFF779BF00BFB40F002070B5044600889C2806D0A12834
:2076600013D078B100232380032070BD2A4B1B788B4240D0294E3378022BF3D19C2323808E
:20768000012070BDFCF79AFCF4E7254B1B788B42244BDB6802D063B1012070BD4BB1224A1A
:2076A000224923481D4E04F041FD224804F0A4FEE1E71D4A1D491E4804F038FD1E4804F0D9
:2076C0009BFE0A25022000F007FC4020FCF7A4FD013DF7D1114E022000F0A2FB124A13490D
:2076E0001348357004F022FD144804F085FE1448FDF732FCBFE70C4A0C490D4804F016FD79
:20770000104804F079FE07484FF42071FFF780FAA1232380012070BD923200202D2C002001
:2077200090320020B80F0020A8550100FC4F01000450010038560100E855010010560100AD
:2077400060010020B855010030B5104B1878012883B00C46154617D00D4B0E4A022818BF29
:207760001346322120460193FEF7A6FC019B0A4A8021284608F018FF29460246204603B0EE
:20778000BDE83040FEF708BD044BEAE72D2C0020AC5601009C560100985401008C560100BB
:2077A0002DE9F04389B00D464FF0000903A917469846CDF80C900646FEF7E2FC3F4A404933
:2077C0000446404804F0B2FC3F4804F015FE14B3039901B30F2C28BF0F24224604A80DF02A
:2077E00057F908AB1C4446F66F6304F8109CBDF810209A4216D0354A049B93424ED0344A3A
:20780000934232D033492D4A2E4804F08FFC324804A904F08BFC28468021FEF73BFC09B013
:20782000BDE8F0839DF81230002BE4D12B4B012208201A7000F062FA022000F0F1FA1F4A7C
:207840001F49204804F072FC254804F0D5FD2548FDF782FB109B00933A46434629463046B9
:20786000FFF772FF09B0BDE8F083BDF81430742BC8D11A4B0220187000F040FA082000F04E
:20788000CFFA0E4A0E490F4804F050FC164804F0B3FD1648002104F0EDFCD8E70F4B002240
:2078A0000A201A7000F0BCFA044A0549054804F03DFC0F4804F0A0FDC9E700BFA855010003
:2078C000FC4F010004500100685601006F666600616C6572C0540100045501002D2C002081
:2078E0008056010060010020A0560100500100209056010008B51F4A1F49204804F016FCE5
:207900001F4804F079FD1F4B1A78022A28D0012A14BF012200221A700FD10A2000F080FA35
